:1000000053C0000070C000006EC000006CC0000053
:100010006AC0000068C0000066C0000064C0000044
:1000200062C0000060C000005EC000005CC0000054
:100030005AC0000065C2000056C0000054C0000055
:1000400052C0000050C000004EC000004CC0000074
:100050004AC0000048C0000046C0000044C0000084
:1000600042C0000040C000003EC000003CC0000094
:100070003AC0000038C0000036C0000034C00000A4
:1000800032C0000030C000002EC000003009350929
:10009000840989098E099809B209D9094A0AE90926
:1000A0004A0A4A0A4A0AF60911241FBECFEFD0E4D1
:1000B000DEBFCDBF11E0A0E0B1E0E0EDFBE100E08C
:1000C0000BBF02C007900D92AC37B107D9F722E001
:1000D000ACE7B1E001C01D92AE30B207E1F70E947B
:1000E000560A0C94E60D8CCFCF93DF93CDB7DEB7D5
:1000F00081E018D0DF91CF910895CF93DF93CDB7F2
:10010000DEB784E690E0CFD088E30CD086E00AD05A
:100110008FE008D081E006D08AE090E0C4D0DF9183
:10012000CF910895CF93DF931F92CDB7DEB7898328
:1001300082E290E022E230E0F90120812E7FFC0192
:1001400020838BE290E02981FC01208382E290E011
:1001500022E230E0F90120812260FC0120830000CE
:1001600082E290E022E230E0F90120812D7FFC0163
:10017000208382E090E097D00F90DF91CF91089597
:10018000CF93DF931F92CDB7DEB7898382E290E0F1
:1001900022E230E0F90120812160FC0120838BE222
:1001A00090E02981FC01208382E290E022E230E0AD
:1001B000F90120812260FC012083000082E290E0AE
:1001C00022E230E0F90120812D7FFC01208381E0D3
:1001D00090E069D00F90DF91CF910895CF93DF9396
:1001E00000D000D0CDB7DEB78A837C836B837CDF01
:1001F0008A8189830FC0898191E0980F99833FD0CC
:100200008B819C819C012F5F3F4F3C832B83FC01A2
:100210008081B6DF8B819C81FC018081882359F726
:100220000F900F900F900F90DF91CF910895CF9383
:10023000DF9300D000D0CDB7DEB78A837C836B8399
:100240008A8189830FC0898191E0980F998317D0A3
:100250008B819C819C012F5F3F4F3C832B83FC0152
:1002600080818EDF8B819C81FC018081882359F7FE
:100270000F900F900F900F90DF91CF910895CF9333
:10028000DF931F92CDB7DEB789838981813120F456
:100290008981815847DF03C08981815543DF0F90F1
:1002A000DF91CF910895CF93DF9300D000D000D09D
:1002B000CDB7DEB79E838D831A82198214C01C824B
:1002C0001B8206C000008B819C8101969C838B83DE
:1002D0008B819C81873023E09207A4F389819A81E6
:1002E00001969A83898329813A818D819E8128177D
:1002F00039072CF326960FB6F894DEBF0FBECDBF9C
:10030000DF91CF910895CF93DF9300D0CDB7DEB7C3
:1003100089836A838A81282F30E081E090E0022E71
:1003200002C0880F991F0A94E2F7982F89818923C8
:100330000F900F90DF91CF910895CF93DF931F928D
:10034000CDB7DEB7198282E290E022E230E0F90117
:1003500020812370FC01208382E290E022E230E0E1
:10036000F90120812C6DFC012083000080E290E0E7
:10037000FC01808167E0C7DF882311F481E3898372
:1003800080E290E0FC01808166E0BDDF882311F40B
:1003900084E3898382E290E022E230E0F901208167
:1003A0002370FC01208382E290E022E230E0F90138
:1003B00020812C6EFC012083000080E290E0FC0193
:1003C000808167E0A0DF882311F482E3898380E2E3
:1003D00090E0FC01808166E096DF882311F485E3DC
:1003E000898382E290E022E230E0F90120812370EB
:1003F000FC01208382E290E022E230E0F9012081DA
:10040000246FFC012083000080E290E0FC018081E9
:1004100067E079DF882311F483E3898380E290E049
:10042000FC01808166E06FDF882311F486E3898315
:1004300082E290E022E230E0F90120812370FC01A9
:10044000208382E290E022E230E0F9012081286FEF
:10045000FC012083000080E290E0FC01808167E0E5
:1004600052DF882311F481E4898380E290E0FC016B
:10047000808166E048DF882311F482E489838981E2
:100480000F90DF91CF910895CF93DF93CDB7DEB773
:1004900081E890E02BE0FC01208388E890E02DE7E4
:1004A00030E0FC01318320838FE690E022E0FC0104
:1004B000208384E890E0FC01118210828091000189
:1004C00090910101A0910201B091030180937D01FF
:1004D00090937E01A0937F01B09380018FE590E01F
:1004E00020E8FC012083DF91CF910895CF93DF9323
:1004F000CDB7DEB781E080937C01DF91CF91089585
:100500001F920F9200905F000F92112400905B00E9
:100510000F922F933F934F935F936F937F938F939C
:100520009F93AF93BF93EF93FF93CF93DF93CDB799
:10053000DEB780917D0190917E01A0917F01B09105
:1005400080010197A109B10980937D0190937E01FB
:10055000A0937F01B093800180917D0190917E01F5
:10056000A0917F01B09180010097A105B10589F4A8
:10057000BDDF8091000190910101A0910201B09135
:10058000030180937D0190937E01A0937F01B0933E
:100590008001DF91CF91FF91EF91BF91AF919F913A
:1005A0008F917F916F915F914F913F912F910F901C
:1005B00000925B000F9000925F000F901F901895C3
:1005C000CF93DF9300D000D0CDB7DEB769837A83B5
:1005D0008B839C8389819A81AB81BC81809300014C
:1005E00090930101A0930201B09303018091000157
:1005F00090910101A0910201B091030180937D01CE
:1006000090937E01A0937F01B09380010F900F9093
:100610000F900F90DF91CF910895CF93DF93CDB7D7
:10062000DEB7000080917C018823E1F310927C0109
:10063000DF91CF910895CF93DF93CDB7DEB7609769
:100640000FB6F894DEBF0FBECDBF6D837E838F8360
:10065000988729873A874B875C878D819E81AF81F8
:10066000B88529853A854B855C85BC01CD010E9402
:10067000900DDC01CB0189839A83AB83BC83898194
:100680009A81AB81BC810097A105B10529F48985C8
:100690009A85AB85BC8511C089859A85AB85BC855B
:1006A0008D839E83AF83B88789819A81AB81BC811A
:1006B00089879A87AB87BC87D0CFBC01CD01609674
:1006C0000FB6F894DEBF0FBECDBFDF91CF91089576
:1006D000CF93DF93CDB7DEB76A970FB6F894DEBF3E
:1006E0000FBECDBF8A8B7C8B6B8B8BE0E3E6F1E09A
:1006F000DE01179601900D928A95E1F78B899C890E
:100700009E838D8384E690E09A8389831C821B827A
:1007100030C08B819C812D813E81280F391F8A89B1
:10072000882F90E049815A81BA010E947D0DCB014A
:10073000AE01495F5F4F840F951FFC018081F90175
:1007400080838A89882F90E029813A81B9010E94AB
:100750007D0D8A8B89819A812AE030E0B9010E945F
:100760007D0DCB019A8389838B819C8101969C832B
:100770008B838B819C81833091055CF28B819C8182
:100780002D813E81820F931FFC0110828D819E81FD
:100790006A960FB6F894DEBF0FBECDBFDF91CF9142
:1007A0000895CF93DF9300D01F92CDB7DEB78B8330
:1007B0001A82198227C085E290E028E0FC0120839C
:1007C00085E290E025E230E0F9012081422F2B8183
:1007D000222F30E0098002C0359527950A94E2F770
:1007E0002170242BFC01208385E290E025E230E09B
:1007F000F90120812260FC01208389819A81019680
:100800009A83898389819A8188309105A4F285E24F
:1008100090E025E230E0F90120812460FC01208392
:1008200085E290E0FC0110820F900F900F90DF9115
:10083000CF910895CF93DF9300D01F92CDB7DEB74D
:100840008B831A82198227C088E290E028E0FC019D
:10085000208388E290E028E230E0F9012081422FF5
:100860002B81222F30E0098002C0359527950A940C
:10087000E2F72170242BFC01208388E290E028E23B
:1008800030E0F90120812260FC01208389819A8176
:1008900001969A83898389819A8188309105A4F28F
:1008A00088E290E028E230E0F90120812460FC0138
:1008B000208388E290E0FC0110820F900F900F904F
:1008C000DF91CF910895CF93DF9300D0CDB7DEB7FE
:1008D0009A83898389819A81009721F081309105DB
:1008E00031F00AC081E090E09A83898308C081E0FA
:1008F00090E09A83898303C01A821982000089815B
:100900009A81009721F08130910541F035C080E057
:1009100090E00E94CC0D8093FC012EC08091970145
:100920008823B9F0909198018091FC01891778F49F
:1009300081E08093A201809198018093FC018091D5
:10094000FC01682F80E090E00E94D40D02C010925C
:10095000A20180919401813071F4809188018823F3
:1009600051F01092FC018091FC01682F80E090E032
:100970000E94D40D00C0000089819A810F900F90D1
:10098000DF91CF910895CF93DF9300D0CDB7DEB73D
:100990009A83898389819A818130910551F08230CF
:1009A000910589F00097C9F481E090E09A838983EA
:1009B00017C080919401882329F082E090E09A8307
:1009C00089830EC00DC080919401882329F481E0B1
:1009D00090E09A83898304C003C01A8219820000C0
:1009E00089819A818130910541F08230910509F425
:1009F00034C0009709F436C036C081E08093050109
:100A0000809106018095809304018091050112DF99
:100A100080910401C6DE01DE809187010BDF8091A9
:100A200086018095BEDEF9DD80918D0103DF809126
:100A30008A018095B6DEF1DD80918E01FBDE80912A
:100A40008B018095AEDEE9DD80918F01F3DE809130
:100A50008C018095A6DEE1DD06C080E0EBDE8FEF45
:100A6000A0DE01C0000089819A810F900F90DF9174
:100A7000CF910895CF93DF9300D0CDB7DEB79A839F
:100A8000898389819A8181309105A1F08230910515
:100A90001CF4009751F072C08230910509F440C0F7
:100AA0008330910509F453C069C081E090E09A83D6
:100AB000898367C080918301882319F088E080933F
:100AC000060180919401882309F05BC0809189011F
:100AD000882309F056C080918401882371F082E058
:100AE00090E09A838983809106018823C4F08091E5
:100AF0000601880F8093060144C0809185018823F8
:100B000071F083E090E09A838983809106018230BE
:100B100030F08091060186958093060132C031C085
:100B200080919401882329F081E090E09A83898361
:100B300028C080918401882349F48091850188230D
:100B400029F481E090E09A8389831BC01AC08091C8
:100B50009401882329F081E090E09A83898311C071
:100B600080918401882349F480918501882329F4A8
:100B700081E090E09A83898304C003C01A821982BD
:100B8000000089819A818130910569F08230910558
:100B90001CF4009751F00EC08230910541F0833073
:100BA000910539F007C0000005C0000003C0000037
:100BB00001C0000089819A810F900F90DF91CF9141
:100BC0000895CF93DF9300D0CDB7DEB79A838983A2
:100BD00089819A81009721F08130910531F00AC016
:100BE00081E090E09A83898308C081E090E09A8355
:100BF000898303C01A821982000089819A81009733
:100C000009F4A2C08130910509F09FC010928101C2
:100C1000109282011092830110928401109285013A
:100C2000109288011092950188DB8093A401809135
:100C3000A401813321F481E08093850136C0809145
:100C4000A401823321F481E0809388012EC0809139
:100C5000A401833321F481E08093840126C0809134
:100C6000A401813421F481E0809382011EC080912F
:100C7000A401843321F481E08093950116C0809112
:100C8000A401853319F41092A5010FC08091A4012D
:100C9000863321F481E08093A50107C08091A401EF
:100CA000823419F481E0809383011092960180913F
:100CB0008301882349F080919601882329F41092BA
:100CC000970181E08093960180918201882359F0F9
:100CD00080919701882339F480919401882319F435
:100CE00081E08093940180919401882351F0809158
:100CF0008401882321F480918501882311F01092CA
:100D0000940180919401813039F480919501882378
:100D100019F082E08093940180919401823039F43B
:100D20008091A501882319F4109293010CC0809141
:100D30009401823041F48091A501882321F081E063
:100D40008093930102C001C0000089819A810F90B5
:100D50000F90DF91CF910895CF93DF9300D0CDB75F
:100D6000DEB79A83898389819A818130910551F018
:100D700082309105D1F0009741F581E090E09A83AF
:100D8000898326C080919401882321F082E090E03D
:100D90009A83898380918301882311F01A821982B2
:100DA00081E090E09A83898313C080919401882325
:100DB00021F481E090E09A838983809197018823D0
:100DC00019F41A82198204C003C01A821982000021
:100DD00089819A818130910541F08230910509F431
:100DE000C6C0009709F4C5C0C5C08091940188238E
:100DF00009F0C0C080919701882309F0BBC08091A1
:100E00008901882371F480918801882351F081E061
:100E100080938901809106018093860181E080930F
:100E2000870180918601882349F08091870188237A
:100E300029F080918701880F809387018091870135
:100E4000882331F410928601109287011092890153
:100E500010920D0290918D0180918701981729F5CC
:100E600090918A018091860189238823F1F09091E5
:100E70008A0180918601892780938A0110928901D5
:100E8000109286011092870181E080930D0280917B
:100E900098018F5F8093980180919301882329F0B6
:100EA000809198018E5F8093980190918E0180913E
:100EB0008701981729F590918B01809186018923EC
:100EC0008823F1F090918B0180918601892780938E
:100ED0008B0110928901109286011092870181E0A6
:100EE00080930D02809198018B5F8093980180918F
:100EF0009301882329F0809198018D5F8093980158
:100F000090918F0180918701981729F590918C011C
:100F10008091860189238823F1F090918C01809142
:100F20008601892780938C01109289011092860195
:100F30001092870181E080930D0280919801865F75
:100F40008093980180919301882329F080919801E2
:100F5000865F8093980180918301882339F01092F5
:100F60008901109286011092870104C003C000001D
:100F700001C0000089819A810F900F90DF91CF917D
:100F80000895CF93DF9300D0CDB7DEB79A838983DE
:100F900089819A8182309105B9F18330910534F4C9
:100FA000009769F08130910579F06CC0833091052C
:100FB00009F448C08430910509F45AC063C081E047
:100FC00090E09A83898361C080E280938D0180E400
:100FD00080938E0180E880938F018CEF80938A014B
:100FE0008CEF80938B018CEF80938C0182E090E0FA
:100FF0009A83898380919401882329F083E090E08B
:101000009A83898342C041C082E090E09A838983B9
:1010100080918301882321F081E090E09A83898385
:1010200080919401882321F083E090E09A83898362
:1010300080919701882329F084E090E09A83898346
:1010400024C023C082E090E09A8389838091940138
:10105000882321F083E090E09A8389838091960130
:10106000882329F081E090E09A8389830EC00DC027
:1010700080919601882329F081E090E09A8389830A
:1010800004C003C01A821982000089819A818230CB
:101090009105D9F0833091053CF4009709F4B7C06D
:1010A0008130910551F0B8C08330910509F4B1C089
:1010B0008430910509F4AFC0AFC01092980110922E
:1010C000900181E080939101A7C0809193018823D2
:1010D00051F08091A601882331F48091A6018F5FA1
:1010E0008093A60199C01092A60190918A018091E7
:1010F0008B01982B80918C01892B80939201809198
:101100009201882321F481E08093970185C080912A
:101110009101882369F180919201882F90E081707C
:101120009927009781F480918A01869580938A019E
:1011300080918B01869580938B0180918C0186959F
:1011400080938C0141C01092910181E080939001C5
:1011500080918D01869580938D0180918E01869579
:1011600080938E0180918F01869580938F012CC092
:1011700080919001882341F180919201882384F02D
:1011800080918A01880F80938A0180918B01880F5A
:1011900080938B0180918C01880F80938C0114C007
:1011A00081E0809391011092900180918D0186954C
:1011B00080938D0180918E01869580938E01809120
:1011C0008F01869580938F0180918D01813039F454
:1011D00080918A01882319F081E0809397018091A2
:1011E0008E01813039F480918B01882319F081E0E0
:1011F0008093970180918F01813041F480918C011F
:10120000882321F081E08093970106C005C000008B
:1012100003C0000001C0000089819A810F900F90E7
:10122000DF91CF910895CF93DF9300D000D000D00D
:10123000CDB7DEB79E838D838D819E81AA2797FDD2
:10124000A095BA2F40E050E026E030E0841B950BDB
:101250002817390708F496C08A5B9F4FFC0182C4A7
:1012600081E090E09E838D8390C0809196018823D9
:1012700021F01E821D820E94740080910D0288233D
:1012800021F082E090E09E838D83809194018130F3
:10129000C1F48091FC016EE971E01ADA67E271E055
:1012A00081E00E94EE006EE971E08EE00E9417017D
:1012B00065E371E081E10E94170185E090E09E8383
:1012C0008D83809197018823F1F08091A20188237A
:1012D00031F46FE071E081E00E94EE000FC069E13F
:1012E00071E081E00E94EE008091980169E971E06F
:1012F000EFD969E971E081E10E94170184E090E093
:101300009E838D8342C041C081E090E09E838D83A7
:101310003CC083E090E09E838D8337C0809196012E
:10132000882329F01E821D820E9474002EC02DC0C9
:1013300080919401882311F41E821D828091940172
:10134000823078F086E090E09E838D8362E471E0E5
:1013500081E00E94EE0063EA71E081E10E941701E2
:1013600014C013C080919401882311F41E821D8241
:1013700080919401813029F485E090E09E838D83F3
:1013800004C003C01E821D8200008D819E81AA2799
:1013900097FDA095BA2F40E050E026E030E0841B96
:1013A000950B2817390708F473C0835B9F4FFC0126
:1013B000D9C38091980169E971E08AD967E071E049
:1013C00081E00E94EE0069E971E081E10E9417016D
:1013D00062C08091980169E971E07AD969E971E0A8
:1013E00081E10E94170110920D0255C08091A70162
:1013F000882F90E09A8389831C821B8216C0898182
:101400009A818E5B9E4FFC0120818B819C81835051
:101410009E4FFC01208389819A8101969A8389835A
:101420008B819C8101969C838B8380916201282F04
:1014300030E089819A81821793070CF36DEF71E098
:1014400081E00E94EE008091A7018F5F8093A70149
:1014500080916201882F90E08E5B9E4FFC0180811D
:10146000882329F0809162018F5F809362018091CF
:10147000A701882F90E08E5B9E4FFC01808188231E
:1014800031F41092A70180E18093620104C003C08F
:10149000000001C000008D819E8126960FB6F89451
:1014A000DEBF0FBECDBFDF91CF9108950F931F9385
:1014B000CF93DF93CDB7DEB7CE56D1090FB6F894F0
:1014C000DEBF0FBECDBF81E290E02FE3FC012083A1
:1014D00082E290E020ECFC01208384E290E02FEF98
:1014E000FC01208385E290E0FC01108287E290E01D
:1014F0002FE0FC01208388E290E020EFFC012083B4
:101500008AE290E02FEFFC0120838BE290E0FC0167
:1015100010828AE090E0A0E0B0E08B839C83AD83F2
:10152000BE8382E090E0A0E0B0E08F839887A98737
:10153000BA878EE190E0A0E0B0E08B879C87AD8712
:10154000BE878AE190E0A0E0B0E08F87988BA98BFE
:10155000BA8B88E290E0A0E0B0E08B8B9C8BAD8BE7
:10156000BE8B8AEF90E0A0E0B0E08F8B988FA98FC0
:10157000BA8F8AE090E0A0E0B0E08B8F9C8FAD8FB7
:10158000BE8F81E090E0A0E0B0E08F8F98A3A9A388
:10159000BAA32F81388549855A858B819C81AD817D
:1015A000BE81BC01CD0147D8DC01CB018F8F98A350
:1015B000A9A3BAA32F8D38A149A15AA18B859C85D7
:1015C000AD85BE85BC01CD0136D8DC01CB018F8F46
:1015D00098A3A9A3BAA32F8D38A149A15AA18F8599
:1015E0009889A989BA89BC01CD0125D8DC01CB0134
:1015F0008F8F98A3A9A3BAA32F8D38A149A15AA16F
:101600008B899C89AD89BE89BC01CD0114D8DC01D0
:10161000CB018F8F98A3A9A3BAA32F8D38A149A17D
:101620005AA18F89988DA98DBA8DBC01CD0103D89F
:10163000DC01CB018F8F98A3A9A3BAA32F8D38A16A
:1016400049A15AA18B8D9C8DAD8DBE8DBC01CD0164
:101650000E941B03DC01CB018F8F98A3A9A3BAA31F
:101660008F8D98A1A9A1BAA18BA39CA3ADA3BEA362
:101670008B819C81AD81BE812BA13CA14DA15EA13E
:10168000BC01CD014DD2DA01C9018FA398A7A9A74A
:10169000BAA78F819885A985BA852BA13CA14DA1B8
:1016A0005EA1BC01CD013CD2DA01C9018BA79CA788
:1016B000ADA7BEA78B859C85AD85BE852BA13CA122
:1016C0004DA15EA1BC01CD012BD2DA01C9018FA7CA
:1016D00098ABA9ABBAAB8F859889A989BA892BA198
:1016E0003CA14DA15EA1BC01CD011AD2DA01C90114
:1016F0008BAB9CABADABBEAB8B899C89AD89BE89F6
:101700002BA13CA14DA15EA1BC01CD0109D2DA0102
:10171000C9018FAB98AFA9AFBAAF8F89988DA98D4A
:10172000BA8D2BA13CA14DA15EA1BC01CD01F8D188
:10173000DA01C9018BAF9CAFADAFBEAF8E01015CCA
:101740001F4F8B8D9C8DAD8DBE8D2BA13CA14DA1CE
:101750005EA1BC01CD01E4D1DA01C901F8018083A9
:101760009183A283B383CE018B5B9F4F2EE0EEE685
:10177000F1E0DC0101900D922A95E1F7CE018D5B3D
:101780009F4F27E030E0FC01318320838FEF9FEFF4
:101790009093A9018093A8018FA198A5A9A5BAA5A6
:1017A0008093AA019093AB01A093AC01B093AD01DB
:1017B0008FA198A5A9A5BAA58093AE019093AF017A
:1017C000A093B001B093B10183E694E09093B3018C
:1017D0008093B2018FEF9FEF9093B5018093B40196
:1017E0008BA59CA5ADA5BEA58093B6019093B7012E
:1017F000A093B801B093B9018BA59CA5ADA5BEA5DA
:101800008093BA019093BB01A093BC01B093BD013A
:1018100083EC94E09093BF018093BE018FEF9FEF24
:101820009093C1018093C0018FA598A9A9A9BAA9D5
:101830008093C2019093C301A093C401B093C501EA
:101840008FA598A9A9A9BAA98093C6019093C701A9
:10185000A093C801B093C9018AE395E09093CB01AE
:101860008093CA018FEF9FEF9093CD018093CC01BD
:101870008BA99CA9ADA9BEA98093CE019093CF015D
:10188000A093D001B093D1018BA99CA9ADA9BEA909
:101890008093D2019093D301A093D401B093D5014A
:1018A00081EE95E09093D7018093D6018FEF9FEF63
:1018B0009093D9018093D8018FA998ADA9ADBAAD05
:1018C0008093DA019093DB01A093DC01B093DD01FA
:1018D0008FA998ADA9ADBAAD8093DE019093DF01D9
:1018E000A093E001B093E1018CEA96E09093E301CC
:1018F0008093E2018FEF9FEF9093E5018093E401E5
:101900008BAD9CADADADBEAD8093E6019093E7018C
:10191000A093E801B093E9018BAD9CADADADBEAD38
:101920008093EA019093EB01A093EC01B093ED0159
:1019300081EC97E09093EF018093EE018FEF9FEFA2
:101940009093F1018093F001CE01CF96FC0180814C
:101950009181A281B3818093F2019093F301A093CE
:10196000F401B093F501CE01CF96FC018081918105
:10197000A281B3818093F6019093F701A093F801BF
:10198000B093F90183E199E09093FB018093FA0110
:101990008BA19CA1ADA1BEA1BC01CD010E94E00222
:1019A0000E947D000E9444021A82198292C09E0108
:1019B0002B5B3F4F89819A81880F991F820F931F5C
:1019C000FC0180819181FC01268137814085518510
:1019D000BE016B5B7F4F89819A81880F991F860FAB
:1019E000971FFC0180819181FC0182819381A481F8
:1019F000B581281739074A075B0709F040C09E01E7
:101A00002B5B3F4F89819A81880F991F820F931F0B
:101A1000FC01008111819E012B5B3F4F89819A81DE
:101A2000880F991F820F931FFC0180819181FC0117
:101A300022853385AE014B5B5F4F89819A81880F88
:101A4000991F840F951FFC0180819181FC01808189
:101A50009181F9010995F801918380839E012B5BA7
:101A60003F4F89819A81880F991F820F931FFC0134
:101A700080819181FC0116821782108611869E0159
:101A80002B5B3F4F89819A81880F991F820F931F8B
:101A9000FC0120813181AE014B5B5F4F89819A81CE
:101AA000880F991F840F951FFC0180819181FC0193
:101AB00086819781A085B1850196A11DB11DF9018F
:101AC00086839783A087B18789819A8101969A83BB
:101AD0008983CE018D5B9F4F29813A81FC018081F2
:101AE00091812817390708F462CF000080917C01AA
:101AF0008823E1F310927C0157CF97FB072E16F451
:101B0000009406D077FD08D033D007FC05D03EF412
:101B1000909581959F4F0895709561957F4F089599
:101B2000A1E21A2EAA1BBB1BFD010DC0AA1FBB1FE1
:101B3000EE1FFF1FA217B307E407F50720F0A21B53
:101B4000B30BE40BF50B661F771F881F991F1A94C0
:101B500069F760957095809590959B01AC01BD01EA
:101B6000CF010895EE0FFF1F0590F491E02D099429
:101B7000AA1BBB1B51E107C0AA1FBB1FA617B707B3
:101B800010F0A61BB70B881F991F5A95A9F78095CF
:101B90009095BC01CD010895F999FECF92BD81BD0C
:101BA000F89A992780B50895262FF999FECF92BD0E
:101BB00081BDF89A019700B4021639F01FBA20BD12
:101BC0000FB6F894FA9AF99A0FBE0895F894FFCFD9
:101BD0000100000001010853636F72653A2000475D
:101BE000414D45204F564552004E65772048692D9E
:101BF00053636F726521004375722048692D5363EA
:101C00006F72653A004D6F72652C20686F6C6420AE
:101C10003400456E656D792053706565643A2053D4
:101C20006C6F77202D20352046617374202D20366F
:101C30002000103031323334353637383900A801BE
:0C1C4000B401C001CC01D801E401F001A6
:00000001FF
