:1000000053C0000070C000006EC000006CC0000053
:100010006AC0000068C0000066C0000064C0000044
:1000200062C0000060C000005EC000005CC0000054
:100030005AC00000A4C1000056C0000054C0000017
:1000400052C0000050C000004EC000004CC0000074
:100050004AC0000048C0000046C0000044C0000084
:1000600042C0000040C000003EC000003CC0000094
:100070003AC0000038C0000036C0000034C00000A4
:1000800032C0000030C000002EC00000EA07EF07B9
:100090003C08410846084F085F087D0899088B080E
:1000A000990899089908990811241FBECFEFD0E448
:1000B000DEBFCDBF11E0A0E0B1E0E4E6F8E100E092
:1000C0000BBF02C007900D92A435B107D9F721E00C
:1000D000A4E5B1E001C01D92AF3CB207E1F70E9478
:1000E000A1080C94300C8CCFCF93DF93CDB7DEB743
:1000F00081E018D0DF91CF910895CF93DF93CDB7F2
:10010000DEB784E690E0CFD088E30CD086E00AD05A
:100110008FE008D081E006D08AE090E0C4D0DF9183
:10012000CF910895CF93DF931F92CDB7DEB7898328
:1001300082E290E022E230E0F90120812E7FFC0192
:1001400020838BE290E02981FC01208382E290E011
:1001500022E230E0F90120812260FC0120830000CE
:1001600082E290E022E230E0F90120812D7FFC0163
:10017000208382E090E097D00F90DF91CF91089597
:10018000CF93DF931F92CDB7DEB7898382E290E0F1
:1001900022E230E0F90120812160FC0120838BE222
:1001A00090E02981FC01208382E290E022E230E0AD
:1001B000F90120812260FC012083000082E290E0AE
:1001C00022E230E0F90120812D7FFC01208381E0D3
:1001D00090E069D00F90DF91CF910895CF93DF9396
:1001E00000D000D0CDB7DEB78A837C836B837CDF01
:1001F0008A8189830FC0898191E0980F99833FD0CC
:100200008B819C819C012F5F3F4F3C832B83FC01A2
:100210008081B6DF8B819C81FC018081882359F726
:100220000F900F900F900F90DF91CF910895CF9383
:10023000DF9300D000D0CDB7DEB78A837C836B8399
:100240008A8189830FC0898191E0980F998317D0A3
:100250008B819C819C012F5F3F4F3C832B83FC0152
:1002600080818EDF8B819C81FC018081882359F7FE
:100270000F900F900F900F90DF91CF910895CF9333
:10028000DF931F92CDB7DEB789838981813120F456
:100290008981815847DF03C08981815543DF0F90F1
:1002A000DF91CF910895CF93DF9300D000D000D09D
:1002B000CDB7DEB79E838D831A82198214C01C824B
:1002C0001B8206C000008B819C8101969C838B83DE
:1002D0008B819C81873023E09207A4F389819A81E6
:1002E00001969A83898329813A818D819E8128177D
:1002F00039072CF326960FB6F894DEBF0FBECDBF9C
:10030000DF91CF910895CF93DF93CDB7DEB781E82A
:1003100090E02BE0FC01208388E890E02DE730E0BE
:10032000FC01318320838FE690E022E0FC012083F2
:1003300084E890E0FC01118210828091000190918C
:100340000101A0910201B0910301809355019093A6
:100350005601A0935701B09358018FE590E020E833
:10036000FC012083DF91CF910895CF93DF93CDB728
:10037000DEB781E080935401DF91CF9108951F9201
:100380000F9200905F000F92112400905B000F927B
:100390002F933F934F935F936F937F938F939F938D
:1003A000AF93BF93EF93FF93CF93DF93CDB7DEB7B8
:1003B0008091550190915601A0915701B09158013B
:1003C0000197A109B1098093550190935601A0931B
:1003D0005701B09358018091550190915601A09119
:1003E0005701B09158010097A105B10589F4BDDF0F
:1003F0008091000190910101A0910201B09103014F
:100400008093550190935601A0935701B0935801E2
:10041000DF91CF91FF91EF91BF91AF919F918F911C
:100420007F916F915F914F913F912F910F9000922B
:100430005B000F9000925F000F901F901895CF9374
:10044000DF9300D000D0CDB7DEB769837A838B838A
:100450009C8389819A81AB81BC81809300019093B8
:100460000101A0930201B0930301809100019091DA
:100470000101A0910201B091030180935501909375
:100480005601A0935701B09358010F900F900F9011
:100490000F90DF91CF910895CF93DF93CDB7DEB763
:1004A0000000809154018823E1F310925401DF9100
:1004B000CF910895CF93DF93CDB7DEB760970FB696
:1004C000F894DEBF0FBECDBF6D837E838F83988788
:1004D00029873A874B875C878D819E81AF81B8855C
:1004E00029853A854B855C85BC01CD010E94DA0BDC
:1004F000DC01CB0189839A83AB83BC8389819A8198
:10050000AB81BC810097A105B10529F489859A8545
:10051000AB85BC8511C089859A85AB85BC858D83EB
:100520009E83AF83B88789819A81AB81BC8189879B
:100530009A87AB87BC87D0CFBC01CD0160960FB640
:10054000F894DEBF0FBECDBFDF91CF910895CF935A
:10055000DF93CDB7DEB76A970FB6F894DEBF0FBE54
:10056000CDBF8A8B7C8B6B8B8BE0EBE3F1E0DE0104
:10057000179601900D928A95E1F78B899C899E834D
:100580008D8384E690E09A8389831C821B8230C02D
:100590008B819C812D813E81280F391F8A89882F6C
:1005A00090E049815A81BA010E94C70BCB01AE018C
:1005B000495F5F4F840F951FFC018081F9018083A3
:1005C0008A89882F90E029813A81B9010E94C70B5E
:1005D0008A8B89819A812AE030E0B9010E94C70B99
:1005E000CB019A8389838B819C8101969C838B8329
:1005F0008B819C81833091055CF28B819C812D8164
:100600003E81820F931FFC0110828D819E816A962C
:100610000FB6F894DEBF0FBECDBFDF91CF91089526
:10062000CF93DF9300D01F92CDB7DEB78B831A82B2
:10063000198227C085E290E028E0FC01208385E252
:1006400090E025E230E0F9012081422F2B81222F1A
:1006500030E0098002C0359527950A94E2F72170B1
:10066000242BFC01208385E290E025E230E0F901B3
:1006700020812260FC01208389819A8101969A83DE
:10068000898389819A8188309105A4F285E290E07E
:1006900025E230E0F90120812460FC01208385E21D
:1006A00090E0FC0110820F900F900F90DF91CF919E
:1006B0000895CF93DF9300D01F92CDB7DEB78B8321
:1006C0001A82198227C088E290E028E0FC0120838A
:1006D00088E290E028E230E0F9012081422F2B816E
:1006E000222F30E0098002C0359527950A94E2F761
:1006F0002170242BFC01208388E290E028E230E086
:10070000F90120812260FC01208389819A81019670
:100710009A83898389819A8188309105A4F288E23D
:1007200090E028E230E0F90120812460FC01208380
:1007300088E290E0FC0110820F900F900F90DF9103
:10074000CF910895CF93DF9300D0CDB7DEB79A83D2
:10075000898389819A81009721F08130910531F058
:100760000AC081E090E09A83898308C081E090E02C
:100770009A83898303C01A821982000089819A8131
:10078000009721F08130910541F035C080E090E084
:100790000E94160C8093CD012EC080916D0188239C
:1007A000B9F090916E018091CD01891778F481E0C4
:1007B0008093780180916E018093CD018091CD016D
:1007C000682F80E090E00E941E0C02C01092780119
:1007D00080916B01813071F480916001882351F028
:1007E0001092CD018091CD01682F80E090E00E94B1
:1007F0001E0C00C0000089819A810F900F90DF913C
:10080000CF910895CF93DF9300D0CDB7DEB79A8311
:10081000898389819A81009749F481E090E09A83E5
:10082000898381E090E09A83898303C01A821982C8
:10083000000089819A81009709F434C081309105C4
:1008400009F031C081E08093050180910601809517
:1008500080930401809105012CDF80910401E0DE8A
:100860001BDE80915F0125DF80915E018095D8DEDF
:1008700013DE809165011DDF809162018095D0DEDD
:100880000BDE8091660115DF809163018095C8DEE3
:1008900003DE809167010DDF809164018095C0DEE9
:1008A000FBDD01C0000089819A810F900F90DF91DC
:1008B000CF910895CF93DF9300D0CDB7DEB79A8361
:1008C000898389819A818130910599F082309105DF
:1008D0001CF4009749F06AC082309105C9F1833059
:1008E000910509F44CC062C081E090E09A8389834D
:1008F00060C080916B01882309F05BC08091610129
:10090000882309F056C080915C01882371F082E051
:1009100090E09A838983809106018823C4F08091B6
:100920000601880F8093060144C080915D018823F1
:1009300071F083E090E09A83898380910601823090
:1009400030F08091060186958093060132C031C057
:1009500080916B01882329F081E090E09A8389835C
:1009600028C080915C01882349F480915D0188232F
:1009700029F481E090E09A8389831BC01AC080919A
:100980006B01882329F081E090E09A83898311C06C
:1009900080915C01882349F480915D01882329F4CA
:1009A00081E090E09A83898304C003C01A8219828F
:1009B000000089819A818130910569F0823091052A
:1009C0001CF4009751F00EC08230910541F0833045
:1009D000910539F007C0000005C0000003C0000009
:1009E00001C0000089819A810F900F90DF91CF9113
:1009F0000895CF93DF9300D0CDB7DEB79A83898374
:100A000089819A81009721F08130910531F00AC0E7
:100A100081E090E09A83898308C081E090E09A8326
:100A2000898303C01A821982000089819A81009704
:100A300009F471C08130910509F06EC080E290E048
:100A4000FC018081809584708093590180E290E060
:100A5000FC0180818095887080935A0180E290E04B
:100A6000FC0180818095807180935B0180E290E041
:100A7000FC0180818095807280935C0180E290E02F
:100A8000FC0180818095807480935D0180E290E01C
:100A9000FC018081809580788093600180916C0159
:100AA000882311F010926C0180915B01882349F03A
:100AB00080916C01882329F410926D0181E080936C
:100AC0006C0180915A01882359F080916D0188232F
:100AD00039F480916B01882319F481E080936B01D4
:100AE00080916B01882351F080915C01882321F46F
:100AF00080915D01882311F010926B0180916B0150
:100B0000813041F480915A01882321F082E0809362
:100B10006B0102C001C0000089819A810F900F9083
:100B2000DF91CF910895CF93DF9300D0CDB7DEB79B
:100B30009A83898389819A818130910551F082302D
:100B40009105D1F0009741F581E090E09A83898387
:100B500026C080916B01882321F082E090E09A8387
:100B6000898380915B01882311F01A82198281E0C8
:100B700090E09A83898313C080916B01882321F4CC
:100B800081E090E09A83898380916D01882319F434
:100B90001A82198204C003C01A8219820000898156
:100BA0009A818130910541F08230910509F4ABC002
:100BB000009709F4AAC0AAC080916B01882309F0AC
:100BC000A5C080916D01882309F0A0C080916101CA
:100BD000882371F480916001882351F081E0809333
:100BE00061018091060180935E0181E080935F0145
:100BF00080915E01882349F080915F01882329F06C
:100C000080915F01880F80935F0180915F0188234D
:100C100031F410925E0110925F0110926101109206
:100C2000CE019091650180915F019817E1F4909158
:100C3000620180915E0189238823A9F0909162016D
:100C400080915E0189278093620110926101109268
:100C50005E0110925F0181E08093CE0180916E0170
:100C60008F5F80936E019091660180915F0198176C
:100C7000E1F49091630180915E0189238823A9F0BA
:100C80009091630180915E018927809363011092A6
:100C9000610110925E0110925F0181E08093CE01AC
:100CA00080916E018B5F80936E01909167018091BE
:100CB0005F019817E1F49091640180915E018923AE
:100CC0008823A9F09091640180915E018927809327
:100CD00064011092610110925E0110925F0181E047
:100CE0008093CE0180916E01865F80936E0180912A
:100CF0005B01882339F01092610110925E0110921D
:100D00005F0104C003C0000001C0000089819A8116
:100D10000F900F90DF91CF910895CF93DF9300D084
:100D2000CDB7DEB79A83898389819A818230910514
:100D3000B9F18330910534F4009769F08130910561
:100D400079F06CC08330910509F448C08430910576
:100D500009F45AC063C081E090E09A83898361C03E
:100D600080E28093650180E48093660180E880934F
:100D700067018CEF809362018CEF809363018CEFAD
:100D80008093640182E090E09A83898380916B0173
:100D9000882329F083E090E09A83898342C041C090
:100DA00082E090E09A83898380915B01882321F01F
:100DB00081E090E09A83898380916B01882321F000
:100DC00083E090E09A83898380916D01882329F0E4
:100DD00084E090E09A83898324C023C082E090E07D
:100DE0009A83898380916B01882321F083E090E0CE
:100DF0009A83898380916C01882329F081E090E0B7
:100E00009A8389830EC00DC080916C01882329F0DC
:100E100081E090E09A83898304C003C01A8219821A
:100E2000000089819A8182309105D9F08330910543
:100E30003CF4009709F4A7C08130910551F0A8C097
:100E40008330910509F4A1C08430910509F49FC055
:100E50009FC010926E011092680181E08093690139
:100E600097C09091620180916301982B80916401F9
:100E7000892B80936A0180916A01882321F481E0A3
:100E800080936D0185C080916901882369F180910B
:100E90006A01882F90E081709927009781F48091F2
:100EA00062018695809362018091630186958093AB
:100EB00063018091640186958093640141C0109222
:100EC000690181E080936801809165018695809336
:100ED0006501809166018695809366018091670126
:100EE0008695809367012CC080916801882341F129
:100EF00080916A01882384F080916201880F809339
:100F0000620180916301880F809363018091640185
:100F1000880F8093640114C081E08093690110926E
:100F200068018091650186958093650180916601D5
:100F3000869580936601809167018695809367010D
:100F400080916501813039F480916201882319F024
:100F500081E080936D0180916601813039F4809148
:100F60006301882319F081E080936D01809167010E
:100F7000813041F480916401882321F081E08093E5
:100F80006D0106C005C0000003C0000001C00000E4
:100F900089819A810F900F90DF91CF910895CF931F
:100FA000DF9300D0CDB7DEB79A83898389819A8198
:100FB000AA2797FDA095BA2F40E050E026E030E048
:100FC000841B950B2817390708F481C08A5B9F4F53
:100FD000FC0112C481E090E09A8389837BC08091F8
:100FE0006C01882319F01A8219827ED88091CE0173
:100FF000882321F082E090E09A83898380916B01BD
:101000008130D1F48091CD0164E771E0A0DA67E22C
:1010100071E081E0E3D864E771E08EE008D965E330
:1010200071E081E104D989E12AD980913A01A8D8F7
:1010300085E090E09A83898380916D018823D9F0BF
:1010400080917801882329F46FE071E081E0C6D8AF
:101050000DC069E171E081E0C1D880916E016FE659
:1010600071E075DA6FE671E081E1E1D884E090E04B
:101070009A8389832FC02EC081E090E09A83898370
:1010800029C083E090E09A83898324C080916C0119
:10109000882321F01A82198227D81CC01BC0809196
:1010A0006B01882311F41A82198280916B018230BE
:1010B00029F486E090E09A8389830CC00BC080916C
:1010C0006B01882319F41A82198204C003C01A82A2
:1010D0001982000089819A81AA2797FDA095BA2FCD
:1010E00040E050E026E030E0841B950B28173907DC
:1010F000F0F0835B9F4FFC017FC380916E016FE630
:1011000071E025DA67E071E081E068D86FE671E0B0
:1011100081E18DD80FC080916E016FE671E017DA22
:101120006FE671E081E183D81092CE0103C0000028
:1011300001C0000089819A810F900F90DF91CF91BB
:1011400008950F931F93CF93DF93CDB7DEB7CE569D
:10115000D1090FB6F894DEBF0FBECDBF81E290E09B
:1011600023E0FC01208382E290E02CEFFC0120834D
:1011700084E290E02FEFFC01208385E290E0FC0107
:10118000108287E290E02FE0FC01208388E290E06B
:1011900020EFFC0120838AE290E02FEFFC01208306
:1011A0008BE290E0FC0110828AE090E0A0E0B0E0E9
:1011B0008B839C83AD83BE8381E090E0A0E0B0E0B0
:1011C0008F839887A987BA8782E390E0A0E0B0E098
:1011D0008B879C87AD87BE8782E390E0A0E0B0E07C
:1011E0008F87988BA98BBA8B82E390E0A0E0B0E068
:1011F0008B8B9C8BAD8BBE8B84EF91E0A0E0B0E03D
:101200008F8B988FA98FBA8F8AE090E0A0E0B0E032
:101210008B8F9C8FAD8FBE8F81E090E0A0E0B0E01F
:101220008F8F98A3A9A3BAA32F81388549855A85A2
:101230008B819C81AD81BE81BC01CD013BD9DC019C
:10124000CB018F8F98A3A9A3BAA32F8D38A149A151
:101250005AA18B859C85AD85BE85BC01CD012AD95F
:10126000DC01CB018F8F98A3A9A3BAA32F8D38A13E
:1012700049A15AA18F859889A989BA89BC01CD0154
:1012800019D9DC01CB018F8F98A3A9A3BAA32F8D05
:1012900038A149A15AA18B899C89AD89BE89BC011D
:1012A000CD0108D9DC01CB018F8F98A3A9A3BAA3E4
:1012B0002F8D38A149A15AA18F89988DA98DBA8DFA
:1012C000BC01CD01F7D8DC01CB018F8F98A3A9A376
:1012D000BAA32F8D38A149A15AA18B8D9C8DAD8DBC
:1012E000BE8DBC01CD01E6D8DC01CB018F8F98A368
:1012F000A9A3BAA38F8D98A1A9A1BAA18BA39CA3DE
:10130000ADA3BEA38B819C81AD81BE812BA13CA1ED
:101310004DA15EA1BC01CD014DD2DA01C9018FA35F
:1013200098A7A9A7BAA78F819885A985BA852BA167
:101330003CA14DA15EA1BC01CD013CD2DA01C901A5
:101340008BA79CA7ADA7BEA78B859C85AD85BE85C9
:101350002BA13CA14DA15EA1BC01CD012BD2DA0194
:10136000C9018FA798ABA9ABBAAB8F859889A9891A
:10137000BA892BA13CA14DA15EA1BC01CD011AD21D
:10138000DA01C9018BAB9CABADABBEAB8B899C8941
:10139000AD89BE892BA13CA14DA15EA1BC01CD01AF
:1013A00009D2DA01C9018FAB98AFA9AFBAAF8F8963
:1013B000988DA98DBA8D2BA13CA14DA15EA1BC0138
:1013C000CD01F8D1DA01C9018BAF9CAFADAFBEAF93
:1013D0008E01015C1F4F8B8D9C8DAD8DBE8D2BA121
:1013E0003CA14DA15EA1BC01CD01E4D1DA01C9014E
:1013F000F80180839183A283B383CE018B5B9F4FDF
:101400002EE0E6E4F1E0DC0101900D922A95E1F78F
:10141000CE018D5B9F4F27E030E0FC0131832083BC
:101420008FEF9FEF90937A01809379018FA198A518
:10143000A9A5BAA580937B0190937C01A0937D011F
:10144000B0937E018FA198A5A9A5BAA580937F012D
:1014500090938001A0938101B093820182EA93E08E
:1014600090938401809383018FEF9FEF9093860187
:10147000809385018BA59CA5ADA5BEA58093870112
:1014800090938801A0938901B0938A018BA59CA5B4
:10149000ADA5BEA580938B0190938C01A0938D0187
:1014A000B0938E0182E094E09093900180938F013D
:1014B0008FEF9FEF90939201809391018FA598A950
:1014C000A9A9BAA98093930190939401A09395013F
:1014D000B09396018FA598A9A9A9BAA9809397015D
:1014E00090939801A0939901B0939A018AE594E0B2
:1014F00090939C0180939B018FEF9FEF90939E01AF
:1015000080939D018BA99CA9ADA9BEA980939F0141
:101510009093A001A093A101B093A2018BA99CA9D3
:10152000ADA9BEA98093A3019093A401A093A501A6
:10153000B093A60189EF94E09093A8018093A7014E
:101540008FEF9FEF9093AA018093A9018FA998AD87
:10155000A9ADBAAD8093AB019093AC01A093AD015E
:10156000B093AE018FA998ADA9ADBAAD8093AF018C
:101570009093B001A093B101B093B20183E995E0DB
:101580009093B4018093B3018FEF9FEF9093B601D6
:101590008093B5018BAD9CADADADBEAD8093B70171
:1015A0009093B801A093B901B093BA018BAD9CADF3
:1015B000ADADBEAD8093BB019093BC01A093BD01C6
:1015C000B093BE018DE896E09093C0018093BF0177
:1015D0008FEF9FEF9093C2018093C101CE01CF9610
:1015E000FC0180819181A281B3818093C30190939A
:1015F000C401A093C501B093C601CE01CF96FC01F2
:1016000080819181A281B3818093C7019093C801A9
:10161000A093C901B093CA018FEC97E09093CC01DD
:101620008093CB018BA19CA1ADA1BEA1BC01CD013A
:101630000E941F020E947D000E9483011A8219826B
:1016400092C09E012B5B3F4F89819A81880F991F21
:10165000820F931FFC0180819181FC0126813781DB
:1016600040855185BE016B5B7F4F89819A81880FD0
:10167000991F860F971FFC0180819181FC01828157
:101680009381A481B581281739074A075B0709F0C0
:1016900040C09E012B5B3F4F89819A81880F991F23
:1016A000820F931FFC01008111819E012B5B3F4F34
:1016B00089819A81880F991F820F931FFC01808175
:1016C0009181FC0122853385AE014B5B5F4F89819F
:1016D0009A81880F991F840F951FFC018081918149
:1016E000FC0180819181F9010995F8019183808342
:1016F0009E012B5B3F4F89819A81880F991F820F32
:10170000931FFC0180819181FC0116821782108653
:1017100011869E012B5B3F4F89819A81880F991F0B
:10172000820F931FFC0120813181AE014B5B5F4F23
:1017300089819A81880F991F840F951FFC018081F0
:101740009181FC0186819781A085B1850196A11DBB
:10175000B11DF90186839783A087B18789819A811A
:1017600001969A838983CE018D5B9F4F29813A81AF
:10177000FC01808191812817390708F462CF0000AD
:10178000809154018823E1F31092540157CF97FBC5
:10179000072E16F4009406D077FD08D033D007FC4E
:1017A00005D03EF4909581959F4F08957095619571
:1017B0007F4F0895A1E21A2EAA1BBB1BFD010DC08D
:1017C000AA1FBB1FEE1FFF1FA217B307E407F507F1
:1017D00020F0A21BB30BE40BF50B661F771F881FCD
:1017E000991F1A9469F760957095809590959B0163
:1017F000AC01BD01CF010895EE0FFF1F0590F491DC
:10180000E02D0994AA1BBB1B51E107C0AA1FBB1FF7
:10181000A617B70710F0A61BB70B881F991F5A957C
:10182000A9F780959095BC01CD010895F999FECF57
:1018300092BD81BDF89A992780B50895262FF99910
:10184000FECF92BD81BDF89A019700B4021639F01F
:101850001FBA20BD0FB6F894FA9AF99A0FBE0895F0
:04186000F894FFCF2A
:101864000100000001010853636F72653A200047CC
:10187400414D45204F564552004E65772048692D0D
:1018840053636F726521004375722048692D536359
:101894006F72653A004D6F7265001930313233341E
:1018A4003536373839007901850191019D01A90147
:0418B400B501C101B8
:00000001FF
