:1000000045C0000060C000005EC000005CC0000091
:100010005AC0000058C0000056C0000054C0000084
:1000200052C0000050C000004EC000004CC0000094
:100030004AC00000E3C0000046C0000044C0000009
:1000400042C0000040C000003EC000003CC00000B4
:100050003AC0000038C0000036C0000034C00000C4
:1000600032C0000030C000002EC000002CC00000D4
:100070002AC0000028C0000026C0000024C00000E4
:1000800022C0000020C000001EC0000011241FBEBE
:10009000CFEFD0E4DEBFCDBF11E0A0E0B1E0EEEEE7
:1000A000F5E000E00BBF02C007900D92A031B10750
:1000B000D9F721E0A0E1B1E001C01D92AA34B20756
:1000C000E1F71FD192C29CCF029718F481E090E033
:1000D000089580E090E008958130910571F01CF45E
:1000E000892B41F038C08230910519F18330910598
:1000F00049F131C081E090E008952091410122232F
:1001000051F08091020188234CF1880F8093020105
:1001100082E090E0089520914001222351F18091E6
:1001200002018230F0F086958093020183E090E036
:1001300008952091410121111CC0209140012223EA
:1001400099F0089520914101211113C0209140019F
:10015000222369F0089580E090E0089582E090E025
:10016000089583E090E0089581E090E0089581E0B3
:1001700090E008950297E0F480B1809584708093B8
:10018000440180B1809588708093430180B180954F
:1001900080718093420180B180958072809341018B
:1001A00080B1809580748093400181E090E0089553
:1001B00080E090E008958BE0809381008DE790E0EF
:1001C000909389008093880082E080936F00109262
:1001D0008500109284008091030190910401A09108
:1001E0000501B09106018093450190934601A093CB
:1001F0004701B093480180E88FBF08951F920F9286
:100200000FB60F9211248F939F93AF93BF9380915A
:10021000450190914601A0914701B0914801019795
:10022000A109B1098093450190934601A09347012C
:10023000B0934801892B8A2B8B2B99F481E0809312
:1002400049018091030190910401A0910501B091B1
:1002500006018093450190934601A0934701B09316
:100260004801BF91AF919F918F910F900FBE0F905A
:100270001F90189520E030E078E090E075B965B106
:10028000AC01022E02C0559547950A94E2F74170E1
:10029000462B45B9299A2F5F3F4F2830310571F71A
:1002A0002A9A15B8089520E030E078E090E078B917
:1002B00068B1AC01022E02C0559547950A94E2F749
:1002C0004170462B48B9419A2F5F3F4F2830310586
:1002D00071F7429A18B80895892B81F481E08093D0
:1002E00000018091020180958093010181E0DBDFB4
:1002F00080910101BFDF81E090E0089580E090E00F
:100300000895CF93DF93CDB7DEB728970FB6F89453
:10031000DEBF0FBECDBF83E081B98CEF82B98FEF16
:1003200084B915B89FE097B990EF98B98AB91BB80E
:100330000F2EFBE4EF2EF02DF12C00E010E052E345
:1003400040E030E020E0652F742F832F922F2E2D78
:100350003F2D402F512F27D1611571058105910542
:1003600049F05E2D4F2D302F212FE62EF72E082F2E
:10037000192FE9CF52E340E030E020E0652F742FE1
:10038000832F922F2E2D3F2D402F512F0CD16115F1
:1003900071058105910549F05E2D4F2D302F212FDC
:1003A000E62EF72E082F192FE9CF52E340E030E078
:1003B00020E0652F742F832F922F2E2D3F2D402F5D
:1003C000512FF1D0611571058105910549F05E2D20
:1003D0004F2D302F212FE62EF72E082F192FE9CF82
:1003E0006BE470E080E090E02E2D3F2D402F512FE8
:1003F000DAD049015A0162E370E080E090E02E2DEE
:100400003F2D402F512FCFD088E0E7E0F1E0DE0113
:10041000119601900D928A95E1F78FEF9FEF9093DF
:100420003501809334018092360190923701A09279
:100430003801B092390180923A0190923B01A0922A
:100440003C01B0923D0164E670E070933F0160931F
:100450003E01909329018093280180922A01909275
:100460002B01A0922C01B0922D0180922E0190922E
:100470002F01A0923001B09231016CE671E07093CF
:1004800033016093320190931D0180931C012093EE
:100490001E0130931F0140932001509321012093AE
:1004A00022013093230140932401509325016CE6EF
:1004B00070E070932701609326019093110180935F
:1004C00010012093120130931301409314015093B3
:1004D0001501209316013093170140931801509392
:1004E00019018AEB90E090931B0180931A01E0922E
:1004F0000301F09204010093050110930601E092BC
:100500004501F0924601009347011093480153DEE4
:1005100000E010E0C12CD12C3AC0F801EE0FFF1F13
:1005200081E090E08C0F9D1FE80FF91FE080F180C3
:10053000D70116964D915D916D917C911997129608
:100540008D919D910D90BC91A02D481759076A0778
:100550007B0779F4D7011A96ED91FC911B978D9149
:100560009C910995F70191838083168217821086EA
:100570001186F70186819781A085B1850196A11D1D
:10058000B11D86839783A087B1870F5F1F4F04300B
:10059000110518F2809149018823E1F31092490175
:1005A0000C2D1D2DF4CFA1E21A2EAA1BBB1BFD01A1
:1005B0000DC0AA1FBB1FEE1FFF1FA217B307E40742
:1005C000F50720F0A21BB30BE40BF50B661F771F9A
:1005D000881F991F1A9469F760957095809590957A
:0E05E0009B01AC01BD01CF010895F894FFCF3F
:1005EE0001010101000000340128011C011001006D
:00000001FF
