S01E000061706F6C613030315F46696E616C5F50726F6A6563742E73726563E9
S113000045C0000061C000005FC000005DC000008A
S11300105BC0000059C0000057C0000055C000007C
S113002053C0000051C000004FC000004DC000008C
S11300304BC0000095C1000047C0000045C000004F
S113004043C0000041C000003FC000003DC00000AC
S11300503BC0000039C0000037C0000035C00000BC
S113006033C0000031C000002FC000002DC00000CC
S11300702BC0000029C0000027C0000025C00000DC
S113008023C0000021C000001FC0000011241FBEB7
S1130090CFEFD0E4DEBFCDBF11E0A0E0B1E0EAE8ED
S11300A0F6E100E00BBF02C007900D92AE34B10739
S11300B0D9F721E0AEE4B1E001C01D92A33CB20740
S11300C0E1F758D70C94430B9BCFCF93DF93CDB775
S11300D0DEB781E018D0DF91CF910895CF93DF93FD
S11300E0CDB7DEB784E690E0CFD088E30CD086E0CD
S11300F00AD08FE008D081E006D08AE090E0C4D036
S1130100DF91CF910895CF93DF931F92CDB7DEB7E0
S1130110898382E290E022E230E0F90120812E7F9F
S1130120FC0120838BE290E02981FC01208382E2A0
S113013090E022E230E0F90120812260FC0120837A
S1130140000082E290E022E230E0F90120812D7F7C
S1130150FC01208382E090E097D00F90DF91CF9153
S11301600895CF93DF931F92CDB7DEB7898382E2E0
S113017090E022E230E0F90120812160FC0120833B
S11301808BE290E02981FC01208382E290E022E26C
S113019030E0F90120812260FC012083000082E22A
S11301A090E022E230E0F90120812D7FFC012083E0
S11301B081E090E069D00F90DF91CF910895CF93C3
S11301C0DF9300D000D0CDB7DEB78A837C836B8306
S11301D07CDF8A8189830FC0898191E0980F99839C
S11301E03FD08B819C819C012F5F3F4F3C832B83AD
S11301F0FC018081B6DF8B819C81FC018081882396
S113020059F70F900F900F900F90DF91CF910895B1
S1130210CF93DF9300D000D0CDB7DEB78A837C8341
S11302206B838A8189830FC0898191E0980F9983B8
S113023017D08B819C819C012F5F3F4F3C832B8384
S1130240FC0180818EDF8B819C81FC01808188236D
S113025059F70F900F900F900F90DF91CF91089561
S1130260CF93DF931F92CDB7DEB789838981813124
S113027020F48981815847DF03C08981815543DF98
S11302800F90DF91CF910895CF93DF9300D000D0EA
S113029000D0CDB7DEB79E838D831A82198214C035
S11302A01C821B8206C000008B819C8101969C836A
S11302B08B838B819C81873023E09207A4F389810F
S11302C09A8101969A83898329813A818D819E81BD
S11302D0281739072CF326960FB6F894DEBF0FBE05
S11302E0CDBFDF91CF910895CF93DF93CDB7DEB724
S11302F081E890E02BE0FC01208388E890E02DE782
S113030030E0FC01318320838FE690E022E0FC01A1
S1130310208384E890E0FC01118210828091000126
S113032090910101A0910201B091030180934F01CA
S113033090935001A0935101B09352018FE590E046
S113034020E8FC012083DF91CF910895CF93DF93C0
S1130350CDB7DEB781E080934E01DF91CF91089550
S11303601F920F9200905F000F92112400905B0087
S11303700F922F933F934F935F936F937F938F933A
S11303809F93AF93BF93EF93FF93CF93DF93CDB737
S1130390DEB780914F0190915001A0915101B0912D
S11303A052010197A109B10980934F019093500123
S11303B0A0935101B093520180914F01909150014B
S11303C0A0915101B09152010097A105B10589F4A2
S11303D0BDDF8091000190910101A0910201B091D3
S11303E0030180934F0190935001A0935101B09366
S11303F05201DF91CF91FF91EF91BF91AF919F9106
S11304008F917F916F915F914F913F912F910F90B9
S113041000925B000F9000925F000F901F90189560
S1130420CF93DF9300D000D0CDB7DEB769837A8352
S11304308B839C8389819A81AB81BC8180930001E9
S113044090930101A0930201B093030180910001F4
S113045090910101A0910201B091030180934F0199
S113046090935001A0935101B09352010F900F90BB
S11304700F900F90DF91CF910895CF93DF93CDB775
S1130480DEB7000080914E018823E1F310924E0103
S1130490DF91CF910895CF93DF93CDB7DEB7609707
S11304A00FB6F894DEBF0FBECDBF6D837E838F83FE
S11304B0988729873A874B875C878D819E81AF8196
S11304C0B88529853A854B855C85BC01CD010E94A0
S11304D0F30ADC01CB0189839A83AB83BC838981D2
S11304E09A81AB81BC810097A105B10529F4898566
S11304F09A85AB85BC8511C089859A85AB85BC85F9
S11305008D839E83AF83B88789819A81AB81BC81B7
S113051089879A87AB87BC87D0CFBC01CD01609611
S11305200FB6F894DEBF0FBECDBFDF91CF91089513
S1130530CF93DF93CDB7DEB76A970FB6F894DEBFDB
S11305400FBECDBF8A8B7C8B6B8B8BE0E5E3F1E038
S1130550DE01179601900D928A95E1F78B899C89AB
S11305609E838D8384E690E09A8389831C821B8218
S113057030C08B819C812D813E81280F391F8A894F
S1130580882F90E049815A81BA010E94E00ACB0188
S1130590AE01495F5F4F840F951FFC018081F90113
S11305A080838A89882F90E029813A81B9010E9449
S11305B0E00A8A8B89819A812AE030E0B9010E949D
S11305C0E00ACB019A8389838B819C8101969C8369
S11305D08B838A89882369F68B819C812D813E8156
S11305E0820F931FFC0110828D819E816A960FB643
S11305F0F894DEBF0FBECDBFDF91CF910895CF93A6
S1130600DF9300D01F92CDB7DEB78B831A82198295
S113061027C085E290E028E0FC01208385E290E099
S113062025E230E0F9012081422F2B81222F30E096
S1130630098002C0359527950A94E2F72170242B8E
S1130640FC01208385E290E025E230E0F90120817D
S11306502260FC01208389819A8101969A8389838F
S113066089819A8188309105A4F285E290E025E29F
S113067030E0F90120812460FC01208385E290E0D0
S1130680FC0110820F900F900F90DF91CF9108958D
S1130690CF93DF9300D01F92CDB7DEB78B831A823E
S11306A0198227C088E290E028E0FC01208388E2D8
S11306B090E028E230E0F9012081422F2B81222FA3
S11306C030E0098002C0359527950A94E2F721703D
S11306D0242BFC01208388E290E028E230E0F90139
S11306E020812260FC01208389819A8101969A836A
S11306F0898389819A8188309105A4F288E290E007
S113070028E230E0F90120812460FC01208388E2A2
S113071090E0FC0110820F900F900F90DF91CF9129
S11307200895CF93DF9300D0CDB7DEB79A83898342
S113073089819A81009721F08130910531F00AC0B6
S113074081E090E09A83898308C081E090E09A83F5
S1130750898303C01A821982000089819A810097D3
S113076021F08130910549F030C080913401882F07
S113077090E06FD78093C10128C090915F01809170
S11307806001982B80916101892B882391F49091C9
S113079065018091C101891760F420916501809100
S11307A03401882F90E0622F5CD76FE071E081E024
S11307B006DD80916601882339F0809155018823F4
S11307C019F01092660100C0000089819A810F908F
S11307D00F90DF91CF910895CF93DF9300D0CDB7E1
S11307E0DEB79A83898389819A81009749F481E0ED
S11307F090E09A83898381E090E09A83898303C09F
S11308001A821982000089819A81009709F434C000
S11308108130910509F031C081E080930501809118
S113082006018095809304018091050131DF809158
S11308300401E5DE22DE809159012ADF809158010E
S11308408095DDDE1ADE80915F0122DF80915C01FC
S11308508095D5DE12DE809160011ADF80915D0102
S11308608095CDDE0ADE8091610112DF80915E0108
S11308708095C5DE02DE01C0000089819A810F9057
S11308800F90DF91CF910895CF93DF9300D0CDB730
S1130890DEB79A83898389819A818130910599F0A1
S11308A0823091051CF4009749F053C082309105C1
S11308B0A1F18330910509F43EC04BC081E090E082
S11308C09A83898349C080915B01882309F044C0DD
S11308D080915601882371F082E090E09A838983A5
S11308E0809106018823C4F080910601880F8093CB
S11308F0060132C080915701882371F083E090E0B3
S11309009A83898380910601823030F080910601B8
S113091086958093060120C01FC0809156018823CC
S113092049F480915701882329F481E090E09A8367
S1130930898312C011C080915601882349F48091A3
S11309405701882329F481E090E09A83898304C0C5
S113095003C01A821982000089819A81813091052D
S113096069F0823091051CF4009751F00EC082307A
S1130970910541F08330910539F007C0000005C0AE
S1130980000003C0000001C0000089819A810F901B
S11309900F90DF91CF910895CF93DF9300D0CDB71F
S11309A0DEB79A83898389819A81009721F0813007
S11309B0910531F00AC081E090E09A83898308C0F0
S11309C081E090E09A83898303C01A82198200002F
S11309D089819A810097A9F18130910509F032C08B
S11309E080E290E0FC0180818095847080935301C3
S11309F080E290E0FC0180818095887080935401AE
S1130A0080E290E0FC0180818095807180935501A3
S1130A1080E290E0FC018081809580728093560191
S1130A2080E290E0FC01808180958074809357017E
S1130A3080E290E0FC0180818095807880935A0167
S1130A4001C0000089819A810F900F90DF91CF91AE
S1130A500895CF93DF9300D0CDB7DEB79A8389830F
S1130A6089819A81009721F08130910531F010C07D
S1130A7081E090E09A8389830EC080915501882398
S1130A8011F01A82198281E090E09A83898303C06D
S1130A901A821982000089819A81009709F49DC005
S1130AA08130910509F09AC080915B01882371F42B
S1130AB080915A01882351F081E080935B018091F9
S1130AC006018093580181E0809359018091580177
S1130AD0882349F080915901882329F08091590194
S1130AE0880F8093590180915901882331F4109221
S1130AF058011092590110925B011092C201909119
S1130B005F01809159019817E1F490915C01809103
S1130B10580189238823A9F090915C0180915801A0
S1130B20892780935C0110925B0110925801109206
S1130B30590181E08093C20180916501865F8093B1
S1130B40650190916001809159019817E1F49091A9
S1130B505D018091580189238823A9F090915D015A
S1130B6080915801892780935D0110925B01109256
S1130B7058011092590181E08093C201809165016E
S1130B808F5F80936501909161018091590198175D
S1130B90E1F490915E018091580189238823A9F0A2
S1130BA090915E0180915801892780935E01109293
S1130BB05B01109258011092590181E08093C201A7
S1130BC0809165018F5F8093650180915501882331
S1130BD019F01092650102C001C0000089819A8158
S1130BE00F900F90DF91CF910895CF93DF9300D0B2
S1130BF0CDB7DEB79A83898389819A818230910542
S1130C00B1F18330910534F4009769F08130910596
S1130C1079F067C08330910509F443C084309105AD
S1130C2009F455C05EC081E090E09A8389835CC07A
S1130C3080E280935F0180E48093600180E8809388
S1130C4061018EE780935C018EE780935D018EE7FE
S1130C5080935E0180916401813021F483E090E00F
S1130C609A83898382E090E09A8389833DC080914E
S1130C705501882321F081E090E09A838983809153
S1130C806401882321F083E090E09A838983809132
S1130C906601882329F084E090E09A83898324C044
S1130CA023C080915501882321F081E090E09A834C
S1130CB0898380916401813029F483E090E09A83F0
S1130CC0898312C082E090E09A8389830DC0809169
S1130CD05501882329F081E090E09A83898304C038
S1130CE003C01A821982000089819A818230910599
S1130CF0C9F0833091053CF4009709F4A5C0813014
S1130D00910551F0A6C08330910509F49FC0843049
S1130D10910509F49DC09DC01092620181E0809309
S1130D20630197C090915C0180915D01982B809143
S1130D305E01892B80936C0180916C01882321F4DE
S1130D4081E08093660185C080916301882369F105
S1130D5080916C01882F90E081709927009781F42D
S1130D6080915C01869580935C0180915D018695FC
S1130D7080935D0180915E01869580935E0141C000
S1130D801092630181E08093620180915F018695F6
S1130D9080935F01809160018695809360018091CA
S1130DA061018695809361012CC080916201882342
S1130DB041F180916C01882384F080915C01880F5B
S1130DC080935C0180915D01880F80935D01809127
S1130DD05E01880F80935E0114C081E080936301FB
S1130DE01092620180915F01869580935F018091EA
S1130DF0600186958093600180916101869580935E
S1130E00610180915F01813039F480915C01882314
S1130E1019F081E08093660180916001813039F49A
S1130E2080915D01882319F081E0809366018091AF
S1130E306101813041F480915E01882321F081E0D9
S1130E408093660106C005C0000003C0000001C015
S1130E50000089819A810F900F90DF91CF910895BE
S1130E60CF93DF9300D0CDB7DEB79A83898389818E
S1130E709A8182309105B1F18330910534F4009761
S1130E8059F08130910569F040C08330910579F1C2
S1130E908430910589F139C081E090E09A83898397
S1130EA037C08091C201882321F082E090E09A83C8
S1130EB08983809166018823A1F0909165018091D6
S1130EC0C101981728F46DE171E081E078D904C07C
S1130ED067E271E081E073D984E090E09A838983CA
S1130EE017C016C081E090E09A83898311C083E023
S1130EF090E09A8389830CC080915501882321F066
S1130F001A821982E2D804C003C01A82198200002E
S1130F1089819A8182309105A9F08330910534F456
S1130F20009759F081309105C9F01DC083309105B7
S1130F30B9F084309105B1F016C067E071E081E04A
S1130F403ED911C08091650167E671E0F1DA67E688
S1130F5071E081E15DD91092C20105C0000003C0B7
S1130F60000001C0000089819A810F900F90DF91E9
S1130F70CF9108950F931F93CF93DF93CDB7DEB72F
S1130F80CE56D1090FB6F894DEBF0FBECDBF81E2B5
S1130F9090E023E0FC01208382E290E02CEFFC014E
S1130FA0208384E290E02FEFFC01208385E290E02F
S1130FB0FC01108287E290E02FE0FC01208388E2AC
S1130FC090E020EFFC0120838AE290E02FEFFC0107
S1130FD020838BE290E0FC0110828AE090E0A0E0A4
S1130FE0B0E08B839C83AD83BE8381E090E0A0E07E
S1130FF0B0E08F839887A987BA8789E190E0A0E061
S1131000B0E08B879C87AD87BE878EE190E0A0E03F
S1131010B0E08F87988BA98BBA8B8AE090E0A0E030
S1131020B0E08B8B9C8BAD8BBE8B84EF91E0A0E00A
S1131030B0E08F8B988FA98FBA8F8AE090E0A0E000
S1131040B0E08B8F9C8FAD8FBE8F81E090E0A0E0ED
S1131050B0E08F8F98A3A9A3BAA32F8138854985BF
S11310605A858B819C81AD81BE81BC01CD0113DA8F
S1131070DC01CB018F8F98A3A9A3BAA32F8D38A12C
S113108049A15AA18B859C85AD85BE85BC01CD0146
S113109002DADC01CB018F8F98A3A9A3BAA32F8D09
S11310A038A149A15AA18F859889A989BA89BC0117
S11310B0CD01F1D9DC01CB018F8F98A3A9A3BAA3E9
S11310C02F8D38A149A15AA18B899C89AD89BE89EC
S11310D0BC01CD01E0D9DC01CB018F8F98A3A9A37A
S11310E0BAA32F8D38A149A15AA18F89988DA98DB2
S11310F0BA8DBC01CD01CFD9DC01CB018F8F98A370
S1131100A9A3BAA32F8D38A149A15AA18B8D9C8D77
S1131110AD8DBE8DBC01CD01BED9DC01CB018F8F5D
S113112098A3A9A3BAA38F8D98A1A9A1BAA18BA3AF
S11311309CA3ADA3BEA38B819C81AD81BE812BA159
S11311403CA14DA15EA1BC01CD014DD2DA01C90182
S11311508FA398A7A9A7BAA78F819885A985BA85CF
S11311602BA13CA14DA15EA1BC01CD013CD2DA0171
S1131170C9018BA79CA7ADA7BEA78B859C85AD8510
S1131180BE852BA13CA14DA15EA1BC01CD012BD2FA
S1131190DA01C9018FA798ABA9ABBAAB8F8598893F
S11311A0A989BA892BA13CA14DA15EA1BC01CD01A5
S11311B01AD2DA01C9018BAB9CABADABBEAB8B8948
S11311C09C89AD89BE892BA13CA14DA15EA1BC0126
S11311D0CD0109D2DA01C9018FAB98AFA9AFBAAF7B
S11311E08F89988DA98DBA8D2BA13CA14DA15EA1AB
S11311F0BC01CD01F8D1DA01C9018BAF9CAFADAF11
S1131200BEAF8E01015C1F4F8B8D9C8DAD8DBE8D4D
S11312102BA13CA14DA15EA1BC01CD01E4D1DA0119
S1131220C901F80180839183A283B383CE018B5BD0
S11312309F4F2EE0E0E4F1E0DC0101900D922A954D
S1131240E1F7CE018D5B9F4F27E030E0FC01318355
S113125020838FEF9FEF90936E0180936D018FA198
S113126098A5A9A5BAA580936F0190937001A09346
S11312707101B09372018FA198A5A9A5BAA5809315
S1131280730190937401A0937501B093760181E981
S113129093E090937801809377018FEF9FEF909381
S11312A07A01809379018BA59CA5ADA5BEA58093F9
S11312B07B0190937C01A0937D01B0937E018BA56B
S11312C09CA5ADA5BEA580937F0190938001A093BA
S11312D08101B09382018CEE93E09093840180931A
S11312E083018FEF9FEF90938601809385018FA5F3
S11312F098A9A9A9BAA98093870190938801A0937A
S11313008901B0938A018FA598A9A9A9BAA9809344
S11313108B0190938C01A0938D01B0938E0184E492
S113132094E09093900180938F018FEF9FEF9093BF
S11313309201809391018BA99CA9ADA9BEA9809328
S1131340930190939401A0939501B09396018BA976
S11313509CA9ADA9BEA98093970190939801A093ED
S11313609901B0939A018CEC94E090939C01809342
S11313709B018FEF9FEF90939E0180939D018FA916
S113138098ADA9ADBAAD80939F019093A001A093AD
S1131390A101B093A2018FA998ADA9ADBAAD809374
S11313A0A3019093A401A093A501B093A60189E29F
S11313B095E09093A8018093A7018FEF9FEF9093FE
S11313C0AA018093A9018BAD9CADADADBEAD809358
S11313D0AB019093AC01A093AD01B093AE018BAD82
S11313E09CADADADBEAD8093AF019093B001A09321
S11313F0B101B093B20185EF95E09093B40180936D
S1131400B3018FEF9FEF9093B6018093B501CE01A6
S1131410CF96FC0180819181A281B3818093B70131
S11314209093B801A093B901B093BA01CE01CF96BD
S1131430FC0180819181A281B3818093BB0190934F
S1131440BC01A093BD01B093BE0180E397E09093EB
S1131450C0018093BF018BA19CA1ADA1BEA1BC0121
S1131460CD010E9410020E946E000E9474011A8233
S1131470198292C09E012B5B3F4F89819A81880F0C
S1131480991F820F931FFC0180819181FC012681A9
S1131490378140855185BE016B5B7F4F89819A817D
S11314A0880F991F860F971FFC0180819181FC0191
S11314B082819381A481B581281739074A075B0784
S11314C009F040C09E012B5B3F4F89819A81880FB0
S11314D0991F820F931FFC01008111819E012B5BD8
S11314E03F4F89819A81880F991F820F931FFC01B6
S11314F080819181FC0122853385AE014B5B5F4F76
S113150089819A81880F991F840F951FFC0180811E
S11315109181FC0180819181F9010995F801918300
S113152080839E012B5B3F4F89819A81880F991F8D
S1131530820F931FFC0180819181FC011682178226
S1131540108611869E012B5B3F4F89819A81880FFB
S1131550991F820F931FFC0120813181AE014B5BE7
S11315605F4F89819A81880F991F840F951FFC0111
S113157080819181FC0186819781A085B185019646
S1131580A11DB11DF90186839783A087B187898145
S11315909A8101969A838983CE018D5B9F4F29811D
S11315A03A81FC01808191812817390708F462CFC0
S11315B0000080914E018823E1F310924E0157CF31
S11315C097FB072E16F4009406D077FD08D02DD093
S11315D007FC05D03EF4909581959F4F0895709532
S11315E061957F4F0895A1E21A2EAA1BBB1BFD0132
S11315F00DC0AA1FBB1FEE1FFF1FA217B307E407EE
S1131600F50720F0A21BB30BE40BF50B661F771F45
S1131610881F991F1A9469F7609570958095909525
S11316209B01AC01BD01CF010895AA1BBB1B51E175
S113163007C0AA1FBB1FA617B70710F0A61BB70B3E
S1131640881F991F5A95A9F780959095BC01CD01E3
S11316500895F999FECF92BD81BDF89A992780B576
S11316600895262FF999FECF92BD81BDF89A01976E
S113167000B4021639F01FBA20BD0FB6F894FA9AD6
S10D1680F99A0FBE0895F894FFCF05
S113168A0100000001010853636F72653A20004E9D
S113169A65772048692D53636F72653A0047414D57
S11316AA45204F564552004E65772048692D5363AD
S11316BA6F7265002E30313233343536373839009B
S11116CA6D017901850191019D01A901B50110
S9030000FC
