S01E000061706F6C613030315F46696E616C5F50726F6A6563742E73726563E9
S113000045C0000060C000005EC000005CC000008D
S11300105AC0000058C0000056C0000054C0000080
S113002052C0000050C000004EC000004CC0000090
S11300304AC0000085C0000046C0000044C0000063
S113004042C0000040C000003EC000003CC00000B0
S11300503AC0000038C0000036C0000034C00000C0
S113006032C0000030C000002EC000002CC00000D0
S11300702AC0000028C0000026C0000024C00000E0
S113008022C0000020C000001EC0000011241FBEBA
S1130090CFEFD0E4DEBFCDBF11E0A0E0B1E0E4E9F2
S11300A0FCE000E00BBF02C007900D92A231B10743
S11300B0D9F721E0A2E1B1E001C01D92AC35B2074D
S11300C0E1F74AD3E5C59CCFCF93DF93CDB7DEB735
S11300D081E890E02BE0FC01208388E890E02DE7A4
S11300E030E0FC01318320838FE690E022E0FC01C4
S11300F0208384E890E0FC01118210828091000149
S113010090910101A0910201B09103018093130128
S113011090931401A0931501B09316018FE590E01C
S113012020E8FC012083DF91CF910895CF93DF93E2
S1130130CDB7DEB781E080931201DF91CF910895AE
S11301401F920F9200905F000F92112400905B00A9
S11301500F922F933F934F935F936F937F938F935C
S11301609F93AF93BF93EF93FF93CF93DF93CDB759
S1130170DEB78091130190911401A0911501B09103
S113018016010197A109B1098093130190931401F9
S1130190A0931501B093160180911301909114015D
S11301A0A0911501B09116010097A105B10589F43C
S11301B0BDDF8091000190910101A0910201B091F5
S11301C003018093130190931401A0931501B0933C
S11301D01601DF91CF91FF91EF91BF91AF919F9164
S11301E08F917F916F915F914F913F912F910F90DC
S11301F000925B000F9000925F000F901F90189583
S1130200CF93DF9300D000D0CDB7DEB769837A8374
S11302108B839C8389819A81AB81BC81809300010B
S113022090930101A0930201B09303018091000116
S113023090910101A0910201B091030180931301F7
S113024090931401A0931501B09316010F900F9091
S11302500F900F90DF91CF910895CF93DF93CDB797
S1130260DEB760970FB6F894DEBF0FBECDBF6D83C7
S11302707E838F83988729873A874B875C878D8114
S11302809E81AF81B88529853A854B855C85BC0103
S1130290CD01DCD4DC01CB0189839A83AB83BC839D
S11302A089819A81AB81BC810097A105B10529F4AC
S11302B089859A85AB85BC8511C089859A85AB856E
S11302C0BC858D839E83AF83B88789819A81AB81F6
S11302D0BC8189879A87AB87BC87D1CFBC01CD010C
S11302E060960FB6F894DEBF0FBECDBFDF91CF91FD
S11302F00895CF93DF9300D01F92CDB7DEB78B83E1
S11303001A82198227C085E290E028E0FC0120834C
S113031085E290E025E230E0F9012081422F2B8133
S1130320222F30E0098002C0359527950A94E2F720
S11303302170242BFC01208385E290E025E230E04B
S1130340F90120812260FC01208389819A81019630
S11303509A83898389819A8188309105A4F285E200
S113036090E025E230E0F90120812460FC01208343
S113037085E290E0FC0110820F900F900F90DF91C6
S1130380CF910895CF93DF9300D01F92CDB7DEB7FE
S11303908B831A82198227C088E290E028E0FC014E
S11303A0208388E290E028E230E0F9012081422FA6
S11303B02B81222F30E0098002C0359527950A94BD
S11303C0E2F72170242BFC01208388E290E028E2EC
S11303D030E0F90120812260FC01208389819A8127
S11303E001969A83898389819A8188309105A4F240
S11303F088E290E028E230E0F90120812460FC01E9
S1130400208388E290E0FC0110820F900F900F90FF
S1130410DF91CF910895CF93DF9300D0CDB7DEB7AE
S11304209A83898389819A81009721F0813091058B
S113043031F00AC081E090E09A83898308C081E0AA
S113044090E09A83898303C01A821982000089810B
S11304509A81009721F08130910519F003C00000C2
S113046001C0000089819A810F900F90DF91CF9194
S11304700895CF93DF9300D0CDB7DEB79A838983F5
S113048089819A81009749F481E090E09A83898375
S113049081E090E09A83898303C01A821982000064
S11304A089819A81009799F08130910509F010C0F3
S11304B081E0809305018091060180958093040179
S11304C0809105015FDF8091040113DF01C000000A
S11304D089819A810F900F90DF91CF910895CF93E6
S11304E0DF9300D0CDB7DEB79A83898389819A815F
S11304F08130910591F0823091051CF4009741F010
S11305004DC08230910571F183309105C9F146C027
S113051081E090E09A83898344C080911A01882302
S113052071F082E090E09A838983809106018823A8
S1130530C4F080910601880F8093060132C0809137
S11305401B01882371F083E090E09A838983809172
S11305500601823030F08091060186958093060171
S113056020C01FC080911A01882349F480911B0187
S1130570882329F481E090E09A83898312C011C012
S113058080911A01882349F480911B01882329F45E
S113059081E090E09A83898304C003C01A8219829F
S11305A0000089819A818130910569F0823091053A
S11305B01CF4009751F00EC08230910541F0833055
S11305C0910539F007C0000005C0000003C0000019
S11305D001C0000089819A810F900F90DF91CF9123
S11305E00895CF93DF9300D0CDB7DEB79A83898384
S11305F089819A81009721F08130910531F00AC0F8
S113060081E090E09A83898308C081E090E09A8336
S1130610898303C01A821982000089819A81009714
S1130620A9F18130910509F032C080E290E0FC012B
S11306308081809584708093170180E290E0FC01B2
S11306408081809588708093180180E290E0FC019D
S11306508081809580718093190180E290E0FC0193
S113066080818095807280931A0180E290E0FC0181
S113067080818095807480931B0180E290E0FC016E
S113068080818095807880931E0101C0000089815B
S11306909A810F900F90DF91CF910895CF93DF93BC
S11306A000D0CDB7DEB79A83898389819A81009778
S11306B021F08130910531F00AC081E090E09A8305
S11306C0898308C081E090E09A83898303C01A82F9
S11306D01982000089819A810097B1F181309105D6
S11306E009F033C080911F01882371F480911E01A9
S11306F0882351F081E080931F018091060180934B
S11307001C0182E080931D0180911C01882349F023
S113071080911D01882329F080911D01880F809309
S11307201D0180911C018095E4DD80911D012ADE6C
S113073080911D0188233CF410921C0110921D012C
S113074010921F0102C001C0000089819A810F909C
S11307500F90DF91CF9108950F931F93CF93DF9361
S1130760CDB7DEB7C255D1090FB6F894DEBF0FBEC0
S1130770CDBF81E290E023E0FC01208382E290E09F
S11307802CEFFC01208384E290E02FEFFC01208316
S113079085E290E0FC01108287E290E02FE0FC010A
S11307A0208388E290E020EFFC0120838AE290E03D
S11307B02FEFFC0120838BE290E0FC0110828BE49C
S11307C090E0A0E0B0E08B839C83AD83BE8382E3A2
S11307D090E0A0E0B0E08F839887A987BA8782E38E
S11307E090E0A0E0B0E08B879C87AD87BE878BE468
S11307F090E0A0E0B0E08F87988BA98BBA8B84E659
S113080090E0A0E0B0E08B8B9C8BAD8BBE8B81E045
S113081090E0A0E0B0E08F8B988FA98FBA8F2F81E2
S1130820388549855A858B819C81AD81BE81BC0107
S1130830CD0113DDDC01CB018F8B988FA98FBA8F8B
S11308402F89388D498D5A8D8B859C85AD85BE85C4
S1130850BC01CD0102DDDC01CB018F8B988FA98F08
S1130860BA8F2F89388D498D5A8D8F859889A9899A
S1130870BA89BC01CD01F1DCDC01CB018F8B988FEF
S1130880A98FBA8F2F89388D498D5A8D8B899C8970
S1130890AD89BE89BC01CD01E0DCDC01CB018F8BCD
S11308A0988FA98FBA8F8F89988DA98DBA8D8B8FC8
S11308B09C8FAD8FBE8F8B819C81AD81BE812B8D32
S11308C03C8D4D8D5E8DBC01CD01C0D1DA01C901D5
S11308D08F8F98A3A9A3BAA38F819885A985BA8578
S11308E02B8D3C8D4D8D5E8DBC01CD01AFD1DA01D8
S11308F0C9018BA39CA3ADA3BEA38B859C85AD85A9
S1130900BE852B8D3C8D4D8D5E8DBC01CD019ED160
S1130910DA01C9018FA398A7A9A7BAA78F859889D7
S1130920A989BA892B8D3C8D4D8D5E8DBC01CD017D
S11309308DD1DA01C9018BA79CA7ADA7BEA78B896E
S11309409C89AD89BE892B8D3C8D4D8D5E8DBC01FE
S1130950CD017CD1DA01C9018FA798ABA9ABBAABA1
S11309608AE0E7E0F1E0DE01D59601900D928A95E8
S1130970E1F785E090E09CAB8BAB8FEF9FEF90931A
S11309802101809320018F8D98A1A9A1BAA1809300
S1130990220190932301A0932401B09325018F8D0C
S11309A098A1A9A1BAA18093260190932701A093AD
S11309B02801B09329018BE092E090932B0180935E
S11309C02A018FEF9FEF90932D0180932C018BA12F
S11309D09CA1ADA1BEA180932E0190932F01A09361
S11309E03001B09331018BA19CA1ADA1BEA1809334
S11309F0320190933301A0933401B093350189E31C
S1130A0092E090933701809336018FEF9FEF90939C
S1130A103901809338018FA198A5A9A5BAA580931F
S1130A203A0190933B01A0933C01B0933D018FA107
S1130A3098A5A9A5BAA580933E0190933F01A093E0
S1130A404001B09341018FE692E09093430180937B
S1130A5042018FEF9FEF90934501809344018BA552
S1130A609CA5ADA5BEA58093460190934701A09394
S1130A704801B09349018BA59CA5ADA5BEA5809363
S1130A804A0190934B01A0934C01B0934D0181EF27
S1130A9092E090934F0180934E018FEF9FEF9093DC
S1130AA05101809350018FA598A9A9A9BAA980934F
S1130AB0520190935301A0935401B09355018FA513
S1130AC098A9A9A9BAA98093560190935701A09314
S1130AD05801B09359018EE493E090935B018093A5
S1130AE05A018B8D9C8DAD8DBE8DBC01CD0188DBF3
S1130AF0EBDA1A8219829AC089819A81880F991F28
S1130B009E012F5F3F4F820F931FC496FC0180818B
S1130B109181FC01268137814085518589819A81A3
S1130B20880F991FBE016F5F7F4F860F971FC49672
S1130B30FC0180819181FC0182819381A481B58132
S1130B40281739074A075B0709F044C089819A814D
S1130B50880F991F9E012F5F3F4F820F931FC496EA
S1130B60FC010081118189819A81880F991F9E015E
S1130B702F5F3F4F820F931FC496FC0180819181A8
S1130B80FC012285338589819A81880F991FAE01E2
S1130B904F5F5F4F840F951FC496FC018081918144
S1130BA0FC0180819181F9010995F8019183808389
S1130BB089819A81880F991F9E012F5F3F4F820F71
S1130BC0931FC496FC0180819181FC0116821782D7
S1130BD01086118689819A81880F991F9E012F5F43
S1130BE03F4F820F931FC496FC012081318189817C
S1130BF09A81880F991FAE014F5F5F4F840F951F35
S1130C00C496FC0180819181FC0186819781A08535
S1130C10B1850196A11DB11DF90186839783A08733
S1130C20B18789819A8101969A83898329813A813E
S1130C308BA99CA92817390708F45ECF000080917E
S1130C4012018823E1F31092120153CFA1E21A2E6C
S1130C50AA1BBB1BFD010DC0AA1FBB1FEE1FFF1F5C
S1130C60A217B307E407F50720F0A21BB30BE40BAC
S1130C70F50B661F771F881F991F1A9469F76095F3
S1130C807095809590959B01AC01BD01CF010895AD
S1070C90F894FFCF02
S1130C940100000001010120012C0138014401502C
S1050CA4010049
S9030000FC
