:1000000045C0000061C000005FC000005DC000008E
:100010005BC0000059C0000057C0000055C0000080
:1000200053C0000051C000004FC000004DC0000090
:100030004BC0000027C1000047C0000045C00000C1
:1000400043C0000041C000003FC000003DC00000B0
:100050003BC0000039C0000037C0000035C00000C0
:1000600033C0000031C000002FC000002DC00000D0
:100070002BC0000029C0000027C0000025C00000E0
:1000800023C0000021C000001FC0000011241FBEBB
:10009000CFEFD0E4DEBFCDBF11E0A0E0B1E0ECEEE9
:1000A000F1E100E00BBF02C007900D92A631B1074D
:1000B000D9F721E0A6E1B1E001C01D92A238B20754
:1000C000E1F74DD50C94F4089BCFCF93DF93CDB7D8
:1000D000DEB784E690E06AD088E30CD086E00AD0F0
:1000E0008FE008D081E006D08AE090E05FD0DF9119
:1000F000CF910895CF93DF931F92CDB7DEB7898359
:1001000082E290E022E230E0F90120812E7FFC01C2
:1001100020838BE290E02981FC01208382E290E041
:1001200022E230E0F90120812260FC0120830000FE
:1001300082E290E022E230E0F90120812D7FFC0193
:10014000208382E090E032D00F90DF91CF9108952C
:10015000CF93DF931F92CDB7DEB7898382E290E021
:1001600022E230E0F90120812160FC0120838BE252
:1001700090E02981FC01208382E290E022E230E0DD
:10018000F90120812260FC012083000082E290E0DE
:1001900022E230E0F90120812D7FFC01208381E003
:1001A00090E004D00F90DF91CF910895CF93DF932B
:1001B00000D000D000D0CDB7DEB79E838D831A82E9
:1001C000198214C01C821B8206C000008B819C8196
:1001D00001969C838B838B819C81873023E09207DF
:1001E000A4F389819A8101969A83898329813A812E
:1001F0008D819E81281739072CF326960FB6F89427
:10020000DEBF0FBECDBFDF91CF910895CF93DF93B7
:10021000CDB7DEB781E890E02BE0FC01208388E8D1
:1002200090E02DE730E0FC01318320838FE690E001
:1002300022E0FC01208384E890E0FC01118210821E
:100240008091000190910101A0910201B091030100
:100250008093170190931801A0931901B0931A018C
:100260008FE590E020E8FC012083DF91CF91089595
:10027000CF93DF93CDB7DEB781E080931601DF9196
:10028000CF9108951F920F9200905F000F9211245A
:1002900000905B000F922F933F934F935F936F9368
:1002A0007F938F939F93AF93BF93EF93FF93CF93DE
:1002B000DF93CDB7DEB78091170190911801A0911F
:1002C0001901B0911A010197A109B1098093170191
:1002D00090931801A0931901B0931A01809117010E
:1002E00090911801A0911901B0911A010097A105F0
:1002F000B10589F4BDDF8091000190910101A091C9
:100300000201B09103018093170190931801A0930B
:100310001901B0931A01DF91CF91FF91EF91BF9135
:10032000AF919F918F917F916F915F914F913F918D
:100330002F910F9000925B000F9000925F000F9042
:100340001F901895CF93DF9300D000D0CDB7DEB7C4
:1003500069837A838B839C8389819A81AB81BC81F9
:100360008093000190930101A0930201B0930301D7
:100370008091000190910101A0910201B0910301CF
:100380008093170190931801A0931901B0931A015B
:100390000F900F900F900F90DF91CF910895CF9312
:1003A000DF93CDB7DEB760970FB6F894DEBF0FBE10
:1003B000CDBF6D837E838F83988729873A874B874C
:1003C0005C878D819E81AF81B88529853A854B8573
:1003D0005C85BC01CD01E6D6DC01CB0189839A8323
:1003E000AB83BC8389819A81AB81BC810097A105D5
:1003F000B10529F489859A85AB85BC8511C08985AD
:100400009A85AB85BC858D839E83AF83B8878981B0
:100410009A81AB81BC8189879A87AB87BC87D1CF12
:10042000BC01CD0160960FB6F894DEBF0FBECDBF04
:10043000DF91CF910895CF93DF9300D01F92CDB776
:10044000DEB78B831A82198227C085E290E028E00C
:10045000FC01208385E290E025E230E0F901208173
:10046000422F2B81222F30E0098002C0359527953D
:100470000A94E2F72170242BFC01208385E290E0AE
:1004800025E230E0F90120812260FC01208389818E
:100490009A8101969A83898389819A81883091050E
:1004A000A4F285E290E025E230E0F90120812460A9
:1004B000FC01208385E290E0FC0110820F900F90F8
:1004C0000F90DF91CF910895CF93DF9300D01F92CB
:1004D000CDB7DEB78B831A82198227C088E290E0FD
:1004E00028E0FC01208388E290E028E230E0F90176
:1004F0002081422F2B81222F30E0098002C03595C8
:1005000027950A94E2F72170242BFC01208388E2CE
:1005100090E028E230E0F90120812260FC01208394
:1005200089819A8101969A83898389819A81883009
:100530009105A4F288E290E028E230E0F901208100
:100540002460FC01208388E290E0FC0110820F907F
:100550000F900F90DF91CF910895CF93DF9300D04C
:10056000CDB7DEB79A83898389819A81009721F07C
:100570008130910531F00AC081E090E09A8389834F
:1005800008C081E090E09A83898303C01A821982AF
:10059000000089819A81009721F08130910519F03E
:1005A00003C0000001C0000089819A810F900F9064
:1005B000DF91CF910895CF93DF9300D0CDB7DEB711
:1005C0009A83898389819A81009749F481E090E038
:1005D0009A83898381E090E09A83898303C01A8299
:1005E0001982000089819A81009799F081309105E4
:1005F00009F010C081E0809305018091060180958B
:1006000080930401809105015FDF8091040113DF75
:1006100001C0000089819A810F900F90DF91CF91E6
:100620000895CF93DF9300D0CDB7DEB79A83898347
:1006300089819A818130910591F0823091051CF475
:10064000009741F04DC08230910571F183309105E2
:10065000C9F146C081E090E09A83898344C08091CB
:100660001E01882371F082E090E09A838983809153
:1006700006018823C4F080910601880F809306014B
:1006800032C080911F01882371F083E090E09A834B
:10069000898380910601823030F080910601869531
:1006A0008093060120C01FC080911E01882349F459
:1006B00080911F01882329F481E090E09A83898347
:1006C00012C011C080911E01882349F480911F013E
:1006D000882329F481E090E09A83898304C003C0D1
:1006E0001A821982000089819A818130910569F00E
:1006F000823091051CF4009751F00EC082309105B4
:1007000041F08330910539F007C0000005C00000BA
:1007100003C0000001C0000089819A810F900F90F2
:10072000DF91CF910895CF93DF9300D0CDB7DEB79F
:100730009A83898389819A81009721F0813091057C
:1007400031F00AC081E090E09A83898308C081E09B
:1007500090E09A83898303C01A82198200008981FC
:100760009A810097A9F18130910509F032C080E2A9
:1007700090E0FC0180818095847080931B0180E271
:1007800090E0FC0180818095887080931C0180E25C
:1007900090E0FC0180818095807180931D0180E252
:1007A00090E0FC0180818095807280931E0180E240
:1007B00090E0FC0180818095807480931F0180E22D
:1007C00090E0FC018081809580788093220101C0B7
:1007D000000089819A810F900F90DF91CF91089549
:1007E000CF93DF9300D0CDB7DEB79A838983898119
:1007F0009A81009721F08130910531F00AC081E0A3
:1008000090E09A83898308C081E090E09A8389838D
:1008100003C01A821982000089819A810097A9F188
:100820008130910509F032C080912301882371F451
:1008300080912201882351F081E0809323018091EF
:1008400006018093200181E08093210180912001A5
:10085000882349F080912101882329F0809121018A
:10086000880F8093210180912101882331F4109217
:100870002001109221011092230180912001809586
:10088000DADD8091210120DE01C0000089819A819A
:100890000F900F90DF91CF910895CF93DF9300D009
:1008A00000D0CDB7DEB79C838B838B819C81813058
:1008B000910591F0823091051CF4009741F043C0FE
:1008C0008230910541F18330910579F13CC081E09E
:1008D00090E09C838B833AC080E28093270180E480
:1008E0008093280180E8809329018EE7809324017A
:1008F0008EE7809325018EE78093260180912B015E
:10090000813021F483E090E09C838B8382E090E04F
:100910009C838B831BC080912B01882329F083E06B
:1009200090E09C838B8312C011C080912B01813099
:1009300029F483E090E09C838B8308C082E090E000
:100940009C838B8303C01C821B8200008B819C8153
:100950008130910579F08230910524F4009709F4F3
:100960009BC09DC08230910549F08330910509F408
:1009700095C095C081E080932A0191C010928101B9
:100980001A82198205C089819A8101969A83898386
:1009900089819A8183309105B4F380E095DD80915F
:1009A0002401809548DD809127018EDD809125010D
:1009B000809541DD8091280187DD80912601809519
:1009C0003ADD8091290180DD9091270180912101FC
:1009D0009817E1F4909124018091200189238823C4
:1009E000A9F090912401809120018927809324010E
:1009F00010922301109220011092210181E0809336
:100A0000810180912C018F5F80932C0190912801AE
:100A1000809121019817E1F49091250180912001A6
:100A200089238823A9F090912501809120018927AD
:100A30008093250110922301109220011092210130
:100A400081E08093810180912C018F5F80932C0144
:100A500090912901809121019817E9F49091260144
:100A60008091200189238823B1F090912601809103
:100A700020018927809326011092230110922001E2
:100A80001092210181E08093810180912C018F5F80
:100A900080932C0104C003C0000001C000008B81C2
:100AA0009C810F900F900F900F90DF91CF91089540
:100AB000CF93DF9300D0CDB7DEB79A838983898146
:100AC0009A818130910591F0823091051CF4009754
:100AD00041F020C08230910599F083309105A9F052
:100AE00019C081E090E09A83898317C080918101C9
:100AF000882329F082E090E09A8389830EC00DC09C
:100B000081E090E09A83898308C083E090E09A8333
:100B1000898303C01A821982000089819A818130F9
:100B2000910589F0823091051CF4009771F010C096
:100B30008230910521F08330910549F009C0809100
:100B40002C0106DB05C0000003C0000001C000004E
:100B500089819A810F900F90DF91CF9108950F9323
:100B60001F93CF93DF93CDB7DEB7CE56D1090FB623
:100B7000F894DEBF0FBECDBF81E290E023E0FC0120
:100B8000208382E290E02CEFFC01208384E290E05D
:100B90002FEFFC01208385E290E0FC01108287E2C8
:100BA00090E02FE0FC01208388E290E020EFFC0140
:100BB00020838AE290E02FEFFC0120838BE290E01B
:100BC000FC0110828AE090E0A0E0B0E08B839C837F
:100BD000AD83BE838AE090E0A0E0B0E08F83988789
:100BE000A987BA8789E190E0A0E0B0E08B879C8775
:100BF000AD87BE878BE490E0A0E0B0E08F87988B54
:100C0000A98BBA8B86E990E0A0E0B0E08B8B9C8B3F
:100C1000AD8BBE8B8AE090E0A0E0B0E08F8B988F28
:100C2000A98FBA8F8AE090E0A0E0B0E08B8F9C8F14
:100C3000AD8FBE8F81E090E0A0E0B0E08F8F98A3F1
:100C4000A9A3BAA32F81388549855A858B819C81B8
:100C5000AD81BE81BC01CD01A2DBDC01CB018F8F58
:100C600098A3A9A3BAA32F8D38A149A15AA18B8516
:100C70009C85AD85BE85BC01CD0191DBDC01CB013E
:100C80008F8F98A3A9A3BAA32F8D38A149A15AA1E8
:100C90008F859889A989BA89BC01CD0180DBDC01E7
:100CA000CB018F8F98A3A9A3BAA32F8D38A149A1F7
:100CB0005AA18B899C89AD89BE89BC01CD016FDBAE
:100CC000DC01CB018F8F98A3A9A3BAA32F8D38A1E4
:100CD00049A15AA18F89988DA98DBA8DBC01CD01EA
:100CE0005EDBDC01CB018F8F98A3A9A3BAA32F8D64
:100CF00038A149A15AA18B8D9C8DAD8DBE8DBC01B3
:100D0000CD014DDBDC01CB018F8F98A3A9A3BAA342
:100D10008F8D98A1A9A1BAA18BA39CA3ADA3BEA3BB
:100D20008B819C81AD81BE812BA13CA14DA15EA197
:100D3000BC01CD0137D2DA01C9018FA398A7A9A7B9
:100D4000BAA78F819885A985BA852BA13CA14DA111
:100D50005EA1BC01CD0126D2DA01C9018BA79CA7F7
:100D6000ADA7BEA78B859C85AD85BE852BA13CA17B
:100D70004DA15EA1BC01CD0115D2DA01C9018FA739
:100D800098ABA9ABBAAB8F859889A989BA892BA1F1
:100D90003CA14DA15EA1BC01CD0104D2DA01C90183
:100DA0008BAB9CABADABBEAB8B899C89AD89BE894F
:100DB0002BA13CA14DA15EA1BC01CD01F3D1DA0173
:100DC000C9018FAB98AFA9AFBAAF8F89988DA98DA4
:100DD000BA8D2BA13CA14DA15EA1BC01CD01E2D1F8
:100DE000DA01C9018BAF9CAFADAFBEAF8E01015C24
:100DF0001F4F8B8D9C8DAD8DBE8D2BA13CA14DA128
:100E00005EA1BC01CD01CED1DA01C901F801808318
:100E10009183A283B383CE018B5B9F4F2EE0E7E0EB
:100E2000F1E0DC0101900D922A95E1F7CE018D5B96
:100E30009F4F27E030E0FC01318320838FEF9FEF4D
:100E400090932E0180932D018FA198A5A9A5BAA5F5
:100E500080932F0190933001A0933101B093320120
:100E60008FA198A5A9A5BAA58093330190933401C9
:100E7000A0933501B09336018DEA92E0909338014A
:100E8000809337018FEF9FEF90933A018093390160
:100E90008BA59CA5ADA5BEA580933B0190933C017D
:100EA000A0933D01B0933E018BA59CA5ADA5BEA529
:100EB00080933F0190934001A0934101B093420180
:100EC0008BED92E090934401809343018FEF9FEF6D
:100ED00090934601809345018FA598A9A9A9BAA925
:100EE0008093470190934801A0934901B0934A0130
:100EF0008FA598A9A9A9BAA980934B0190934C01F9
:100F0000A0934D01B0934E0181E193E09093500185
:100F100080934F018FEF9FEF909352018093510187
:100F20008BA99CA9ADA9BEA98093530190935401AC
:100F3000A0935501B09356018BA99CA9ADA9BEA958
:100F40008093570190935801A0935901B0935A018F
:100F500083E993E090935C0180935B018FEF9FEFB7
:100F600090935E0180935D018FA998ADA9ADBAAD54
:100F700080935F0190936001A0936101B09362013F
:100F80008FA998ADA9ADBAAD809363019093640128
:100F9000A0936501B093660180EF93E090936801A0
:100FA000809367018FEF9FEF90936A0180936901AF
:100FB0008BAD9CADADADBEAD80936B0190936C01DC
:100FC000A0936D01B0936E018BAD9CADADADBEAD88
:100FD00080936F0190937001A0937101B09372019F
:100FE0008DE494E090937401809373018FEF9FEFF1
:100FF0009093760180937501CE01CF96FC0180819C
:101000009181A281B3818093770190937801A0931D
:101010007901B0937A01CE01CF96FC018081918154
:10102000A281B38180937B0190937C01A0937D0189
:10103000B0937E0188E595E09093800180937F01D5
:101040008BA19CA1ADA1BEA1BC01CD017BD93DD896
:10105000DDD81A82198292C09E012B5B3F4F898195
:101060009A81880F991F820F931FFC0180819181C3
:10107000FC012681378140855185BE016B5B7F4F26
:1010800089819A81880F991F860F971FFC018081A3
:101090009181FC0182819381A481B5812817390750
:1010A0004A075B0709F040C09E012B5B3F4F8981D7
:1010B0009A81880F991F820F931FFC010081118173
:1010C0009E012B5B3F4F89819A81880F991F820F68
:1010D000931FFC0180819181FC0122853385AE0143
:1010E0004B5B5F4F89819A81880F991F840F951FF1
:1010F000FC0180819181FC0180819181F901099538
:10110000F801918380839E012B5B3F4F89819A81F7
:10111000880F991F820F931FFC0180819181FC0130
:1011200016821782108611869E012B5B3F4F8981A4
:101130009A81880F991F820F931FFC0120813181B2
:10114000AE014B5B5F4F89819A81880F991F840F95
:10115000951FFC0180819181FC0186819781A0858A
:10116000B1850196A11DB11DF90186839783A087E2
:10117000B18789819A8101969A838983CE018D5B9B
:101180009F4F29813A81FC0180819181281739077D
:1011900008F462CF0000809116018823E1F31092D9
:1011A000160157CFA1E21A2EAA1BBB1BFD010DC0D1
:1011B000AA1FBB1FEE1FFF1FA217B307E407F50707
:1011C00020F0A21BB30BE40BF50B661F771F881FE3
:1011D000991F1A9469F760957095809590959B0179
:0C11E000AC01BD01CF010895F894FFCFD1
:1011EC00010000000101012D013901450151015D92
:0611FC000169017501000C
:00000001FF
