:1000000045C0000060C000005EC000005CC0000091
:100010005AC0000058C0000056C0000054C0000084
:1000200052C0000050C000004EC000004CC0000094
:100030004AC0000074C0000046C0000044C0000078
:1000400042C0000040C000003EC000003CC00000B4
:100050003AC0000038C0000036C0000034C00000C4
:1000600032C0000030C000002EC000002CC00000D4
:100070002AC0000028C0000026C0000024C00000E4
:1000800022C0000020C000001EC0000011241FBEBE
:10009000CFEFD0E4DEBFCDBF11E0A0E0B1E0E8E7F4
:1000A000F3E000E00BBF02C007900D92A630B1074D
:1000B000D9F721E0A6E0B1E001C01D92A332B2075A
:1000C000E1F7A9D057C19CCF029718F481E090E0E6
:1000D000089580E090E008958BE0809381008DE7A3
:1000E00090E0909389008093880082E080936F0075
:1000F000109285001092840080910101909102017C
:10010000A0910301B091040180931E0190931F01FF
:10011000A0932001B093210180E88FBF08951F9222
:100120000F920FB60F9211248F939F93AF93BF93AB
:1001300080911E0190911F01A0912001B091210199
:100140000197A109B10980931E0190931F01A0930B
:100150002001B0932101892B8A2B8B2B99F481E00C
:10016000809322018091010190910201A0910301ED
:10017000B091040180931E0190931F01A093200170
:10018000B0932101BF91AF919F918F910F900FBEBE
:100190000F901F90189520E030E078E090E075B95E
:1001A00065B1AC01022E02C0559547950A94E2F75D
:1001B0004170462B45B9299A2F5F3F4F28303105B2
:1001C00071F72A9A15B8089520E030E078E090E0C1
:1001D00078B968B1AC01022E02C0559547950A94D2
:1001E000E2F74170462B48B9419A2F5F3F4F2830C4
:1001F000310571F7429A18B80895892B49F4809116
:100200000001E2DF80910001C6DF81E090E0089507
:1002100080E090E00895CF93DF9300D000D0CDB779
:10022000DEB78FEF81B912B884B915B89FE097B9DE
:1002300090EF98B98AB91BB8A2E1B1E0BA83A9835B
:10024000E6E0F1E0FC83EB832FEF3FEF2D933C934F
:1002500081E090E0A0E0B0E080931401909315015C
:10026000A0931601B0931701809318019093190180
:10027000A0931A01B0931B0144E650E050931D0176
:1002800040931C01318320838093080190930901DE
:10029000A0930A01B0930B0180930C0190930D0180
:1002A000A0930E01B0930F018DEF90E09093110198
:1002B0008093100184E690E0A0E0B0E0809301011B
:1002C00090930201A0930301B093040180931E0157
:1002D00090931F01A0932001B0932101FDDE00E067
:1002E00010E0C12CD12C3AC0F801EE0FFF1F81E0C5
:1002F00090E08C0F9D1FE80FF91FE080F180D7017F
:1003000016964D915D916D917C91199712968D91F4
:100310009D910D90BC91A02D481759076A077B0746
:1003200079F4D7011A96ED91FC911B978D919C91D0
:100330000995F701918380831682178210861186B2
:10034000F70186819781A085B1850196A11DB11D18
:1003500086839783A087B1870F5F1F4F02301105F7
:1003600018F2809122018823E1F3109222010C2DD2
:080370001D2DF4CFF894FFCF1E
:060378000101000000007D
:00000001FF
