S01E000061706F6C613030315F46696E616C5F50726F6A6563742E73726563E9
S113000045C0000062C0000060C000005EC0000087
S11300105CC000005AC0000058C0000056C0000078
S113002054C0000052C0000050C000004EC0000088
S11300304CC0000096C1000048C0000046C000004B
S113004044C0000042C0000040C000003EC00000A8
S11300503CC000003AC0000038C0000036C00000B8
S113006034C0000032C0000030C000002EC00000C8
S11300702CC000002AC0000028C0000026C00000D8
S113008024C0000022C0000020C0000011241FBEB4
S1130090CFEFD0E4DEBFCDBF11E0A0E0B1E0ECEDE6
S11300A0F7E100E00BBF02C007900D92AE34B10738
S11300B0D9F721E0AEE4B1E001C01D92A93CB2073A
S11300C0E1F70E9463080C94EC0B9ACFCF93DF9373
S11300D0CDB7DEB781E018D0DF91CF910895CF93EB
S11300E0DF93CDB7DEB784E690E0CFD088E30CD0C1
S11300F086E00AD08FE008D081E006D08AE090E064
S1130100C4D0DF91CF910895CF93DF931F92CDB7E1
S1130110DEB7898382E290E022E230E0F9012081B7
S11301202E7FFC0120838BE290E02981FC01208357
S113013082E290E022E230E0F90120812260FC01B9
S11301402083000082E290E022E230E0F901208185
S11301502D7FFC01208382E090E097D00F90DF9107
S1130160CF910895CF93DF931F92CDB7DEB78983E4
S113017082E290E022E230E0F90120812160FC017A
S113018020838BE290E02981FC01208382E290E0CD
S113019022E230E0F90120812260FC01208300008A
S11301A082E290E022E230E0F90120812D7FFC011F
S11301B0208381E090E069D00F90DF91CF91089582
S11301C0CF93DF9300D000D0CDB7DEB78A837C8392
S11301D06B837CDF8A8189830FC0898191E0980FCA
S11301E099833FD08B819C819C012F5F3F4F3C833F
S11301F02B83FC018081B6DF8B819C81FC01808193
S1130200882359F70F900F900F900F90DF91CF91A3
S11302100895CF93DF9300D000D0CDB7DEB78A83A3
S11302207C836B838A8189830FC0898191E0980FD5
S1130230998317D08B819C819C012F5F3F4F3C8316
S11302402B83FC0180818EDF8B819C81FC0180816A
S1130250882359F70F900F900F900F90DF91CF9153
S11302600895CF93DF931F92CDB7DEB78983898139
S1130270813120F48981815847DF03C08981815508
S113028043DF0F90DF91CF910895CF93DF9300D098
S113029000D000D0CDB7DEB79E838D831A82198239
S11302A014C01C821B8206C000008B819C810196B5
S11302B09C838B838B819C81873023E09207A4F3FA
S11302C089819A8101969A83898329813A818D81D2
S11302D09E81281739072CF326960FB6F894DEBFB3
S11302E00FBECDBFDF91CF910895CF93DF93CDB7EC
S11302F0DEB781E890E02BE0FC01208388E890E001
S11303002DE730E0FC01318320838FE690E022E08A
S1130310FC01208384E890E0FC011182108280912A
S1130320000190910101A0910201B0910301809319
S11303304F0190935001A0935101B09352018FE566
S113034090E020E8FC012083DF91CF910895CF93C2
S1130350DF93CDB7DEB781E080934E01DF91CF917B
S113036008951F920F9200905F000F921124009045
S11303705B000F922F933F934F935F936F937F9301
S11303808F939F93AF93BF93EF93FF93CF93DF9399
S1130390CDB7DEB780914F0190915001A0915101EA
S11303A0B09152010197A109B10980934F01909333
S11303B05001A0935101B093520180914F0190914B
S11303C05001A0915101B09152010097A105B105CE
S11303D089F4BDDF8091000190910101A091020197
S11303E0B091030180934F0190935001A093510168
S11303F0B0935201DF91CF91FF91EF91BF91AF91F3
S11304009F918F917F916F915F914F913F912F9128
S11304100F9000925B000F9000925F000F901F906E
S11304201895CF93DF9300D000D0CDB7DEB76983A2
S11304307A838B839C8389819A81AB81BC818093ED
S1130440000190930101A0930201B09303018091F4
S1130450000190910101A0910201B09103018093E8
S11304604F0190935001A0935101B09352010F900A
S11304700F900F900F90DF91CF910895CF93DF935A
S1130480CDB7DEB7000080914E018823E1F31092CE
S11304904E01DF91CF910895CF93DF93CDB7DEB7AF
S11304A060970FB6F894DEBF0FBECDBF6D837E8319
S11304B08F83988729873A874B875C878D819E81B4
S11304C0AF81B88529853A854B855C85BC01CD0112
S11304D00E949C0BDC01CB0189839A83AB83BC8390
S11304E089819A81AB81BC810097A105B10529F46A
S11304F089859A85AB85BC8511C089859A85AB852C
S1130500BC858D839E83AF83B88789819A81AB81B3
S1130510BC8189879A87AB87BC87D0CFBC01CD01CA
S113052060960FB6F894DEBF0FBECDBFDF91CF91BA
S11305300895CF93DF93CDB7DEB76A970FB6F894DB
S1130540DEBF0FBECDBF8A8B7C8B6B8B8BE0E5E36C
S1130550F1E0DE01179601900D928A95E1F78B89FF
S11305609C899E838D8384E690E09A8389831C8290
S11305701B8230C08B819C812D813E81280F391FC5
S11305808A89882F90E049815A81BA010E94890B97
S1130590CB01AE01495F5F4F840F951FFC01808141
S11305A0F90180838A89882F90E029813A81B901F1
S11305B00E94890B8A8B89819A812AE030E0B901F3
S11305C00E94890BCB019A8389838B819C8101963C
S11305D09C838B838B819C81833091055CF28B811E
S11305E09C812D813E81820F931FFC0110828D819D
S11305F09E816A960FB6F894DEBF0FBECDBFDF9121
S1130600CF910895CF93DF9300D01F92CDB7DEB77B
S11306108B831A82198227C085E290E028E0FC01CE
S1130620208385E290E025E230E0F9012081422F29
S11306302B81222F30E0098002C0359527950A943A
S1130640E2F72170242BFC01208385E290E025E26F
S113065030E0F90120812260FC01208389819A81A4
S113066001969A83898389819A8188309105A4F2BD
S113067085E290E025E230E0F90120812460FC016C
S1130680208385E290E0FC0110820F900F900F9080
S1130690DF91CF910895CF93DF9300D01F92CDB710
S11306A0DEB78B831A82198227C088E290E028E0A3
S11306B0FC01208388E290E028E230E0F901208107
S11306C0422F2B81222F30E0098002C035952795D7
S11306D00A94E2F72170242BFC01208388E290E045
S11306E028E230E0F90120812260FC012083898125
S11306F09A8101969A83898389819A8188309105A8
S1130700A4F288E290E028E230E0F901208124603C
S1130710FC01208388E290E0FC0110820F900F908E
S11307200F90DF91CF910895CF93DF9300D0CDB791
S1130730DEB79A83898389819A81009721F0813079
S1130740910531F00AC081E090E09A83898308C062
S113075081E090E09A83898303C01A8219820000A1
S113076089819A81009721F08130910541F040C040
S113077080E090E00E94D20B8093C70139C0909131
S11307805F0180916001982B80916101892B8823FE
S1130790E9F4909168018091C7018917A8F481E078
S11307A080937201809168018093C7018091C70191
S11307B0882F90E0BC0181E12CDD8091C701682F76
S11307C080E090E0F7D702C0109272018091650139
S11307D0882369F080915A01882349F01092C70157
S11307E08091C701682F80E090E0E4D700C000004A
S11307F089819A810F900F90DF91CF910895CF93C3
S1130800DF9300D0CDB7DEB79A83898389819A813B
S1130810009749F481E090E09A83898381E090E035
S11308209A83898303C01A821982000089819A817C
S1130830009709F434C08130910509F031C081E09A
S11308408093050180910601809580930401809135
S1130850050121DF80910401D5DE10DE809159016C
S11308601ADF809158018095CDDE08DE80915F010A
S113087012DF80915C018095C5DE00DE809160010D
S11308800ADF80915D018095BDDEF8DD8091610114
S113089002DF80915E018095B5DEF0DD01C00000CD
S11308A089819A810F900F90DF91CF910895CF9312
S11308B0DF9300D0CDB7DEB79A83898389819A818B
S11308C08130910599F0823091051CF4009749F02C
S11308D06AC082309105C9F18330910509F44CC096
S11308E062C081E090E09A83898360C08091650151
S11308F0882309F05BC080915B01882309F056C00E
S113090080915601882371F082E090E09A83898374
S1130910809106018823C4F080910601880F80939A
S1130920060144C080915701882371F083E090E070
S11309309A83898380910601823030F08091060188
S113094086958093060132C031C080916501882369
S113095029F081E090E09A83898328C08091560130
S1130960882349F480915701882329F481E090E099
S11309709A8389831BC01AC080916501882329F05A
S113098081E090E09A83898311C080915601882385
S113099049F480915701882329F481E090E09A83F7
S11309A0898304C003C01A821982000089819A8154
S11309B08130910569F0823091051CF4009751F063
S11309C00EC08230910541F08330910539F007C0A3
S11309D0000005C0000003C0000001C000008981C0
S11309E09A810F900F90DF91CF910895CF93DF9369
S11309F000D0CDB7DEB79A83898389819A81009725
S1130A0021F08130910531F00AC081E090E09A83B1
S1130A10898308C081E090E09A83898303C01A82A5
S1130A201982000089819A81009709F466C0813097
S1130A30910509F063C080E290E0FC01808180951B
S1130A4084708093530180E290E0FC018081809562
S1130A5088708093540180E290E0FC01808180954D
S1130A6080718093550180E290E0FC018081809543
S1130A7080728093560180E290E0FC018081809531
S1130A8080748093570180E290E0FC01808180951E
S1130A90807880935A0180916601882311F0109226
S1130AA0660180915501882349F08091660188236D
S1130AB029F41092670181E08093660180915401CA
S1130AC0882359F080916701882339F48091650166
S1130AD0882319F481E0809365018091650188235E
S1130AE059F080915601882321F48091570188237D
S1130AF019F01092650102C001C0000089819A8139
S1130B000F900F90DF91CF910895CF93DF9300D092
S1130B10CDB7DEB79A83898389819A818130910523
S1130B2051F082309105D1F0009711F581E090E009
S1130B309A83898320C080916501882321F082E013
S1130B4090E09A83898380915501882311F01A8259
S1130B50198281E090E09A8389830DC080916501B8
S1130B60882329F481E090E09A83898304C003C038
S1130B701A821982000089819A818130910541F09D
S1130B808230910509F4A2C0009709F4A1C0A1C064
S1130B9080916501882309F09CC080915B018823C2
S1130BA071F480915A01882351F081E080935B01B4
S1130BB0809106018093580181E0809359018091CE
S1130BC05801882349F080915901882329F08091A4
S1130BD05901880F8093590180915901882331F478
S1130BE0109258011092590110925B011092C801A1
S1130BF090915F01809159019817E1F490915C0103
S1130C008091580189238823A9F090915C018091F7
S1130C105801892780935C0110925B01109258015E
S1130C201092590181E08093C80180916801865F28
S1130C308093680190916001809159019817E1F4C3
S1130C4090915D018091580189238823A9F09091A6
S1130C505D0180915801892780935D0110925B01A9
S1130C60109258011092590181E08093C80180913B
S1130C7068018F5F809368019091610180915901AF
S1130C809817E1F490915E0180915801892388239B
S1130C90A9F090915E0180915801892780935E01AB
S1130CA010925B01109258011092590181E08093D7
S1130CB0C801809168018F5F80936801809155011C
S1130CC0882319F01092680104C003C0000001C019
S1130CD0000089819A810F900F90DF91CF91089540
S1130CE0CF93DF9300D0CDB7DEB79A838983898110
S1130CF09A8182309105B1F18330910534F40097E3
S1130D0069F08130910579F067C08330910509F469
S1130D1043C08430910509F455C05EC081E090E081
S1130D209A8389835CC080E280935F0180E480932E
S1130D30600180E8809361018CEF80935C018CEF0B
S1130D4080935D018CEF80935E0180916501813019
S1130D5021F483E090E09A83898382E090E09A838F
S1130D6089833DC080915501882321F081E090E082
S1130D709A83898380916501882321F083E090E040
S1130D809A83898380916701882329F084E090E025
S1130D909A83898324C023C080916601882321F02B
S1130DA081E090E09A83898380916501813029F400
S1130DB083E090E09A83898312C082E090E09A8372
S1130DC089830DC080916601882329F081E090E039
S1130DD09A83898304C003C01A821982000089811E
S1130DE09A8182309105C9F0833091053CF40097D3
S1130DF009F4A5C08130910551F0A6C08330910556
S1130E0009F49FC08430910509F49DC09DC01092DF
S1130E10620181E08093630197C090915C018091AD
S1130E205D01982B80915E01892B809364018091F0
S1130E306401882321F481E08093670185C0809157
S1130E406301882369F180916401882F90E08170A7
S1130E509927009781F480915C01869580935C01C9
S1130E6080915D01869580935D0180915E018695F8
S1130E7080935E0141C01092630181E0809362011E
S1130E8080915F01869580935F01809160018695D2
S1130E9080936001809161018695809361012CC0EB
S1130EA080916201882341F180916401882384F058
S1130EB080915C01880F80935C0180915D01880FB3
S1130EC080935D0180915E01880F80935E0114C060
S1130ED081E0809363011092620180915F018695A5
S1130EE080935F0180916001869580936001809179
S1130EF0610186958093610180915F01813039F4AD
S1130F0080915C01882319F081E0809367018091CE
S1130F106001813039F480915D01882319F081E00A
S1130F208093670180916101813041F480915E0179
S1130F30882321F081E08093670106C005C000008A
S1130F4003C0000001C0000089819A810F900F90B6
S1130F50DF91CF910895CF93DF9300D0CDB7DEB763
S1130F609A83898389819A818230910509F456C0D4
S1130F708330910534F4009789F08130910599F01C
S1130F8068C08430910509F453C0843091050CF491
S1130F904AC08530910509F454C05BC081E090E0FB
S1130FA09A83898359C08091C801882321F082E003
S1130FB090E09A83898380916501882389F08091E8
S1130FC0C7016EE671E0B5DA67E271E081E0F8D856
S1130FD06EE671E081E11DD985E090E09A83898312
S1130FE0809167018823C9F080917201882329F4D4
S1130FF06FE071E081E0E4D80BC069E171E081E069
S1131000DFD880916801882F90E0BC0181E101D98B
S113101084E090E09A8389831FC01EC081E090E041
S11310209A83898319C083E090E09A83898314C0EA
S113103080916601882321F01A82198247D80CC056
S11310400BC080916501882319F41A82198204C0A7
S113105003C01A821982000089819A818230910525
S1131060C1F08330910534F4009771F0813091051B
S1131070E1F022C084309105D1F084309105CCF0A8
S113108085309105C1F018C067E071E081E098D81F
S113109013C08091680169E671E04BDA69E671E09A
S11310A081E1B7D81092C80107C0000005C0000054
S11310B003C0000001C0000089819A810F900F9045
S11310C0DF91CF9108950F931F93CF93DF93CDB703
S11310D0DEB7CE56D1090FB6F894DEBF0FBECDBF32
S11310E081E290E023E0FC01208382E290E02CEF97
S11310F0FC01208384E290E02FEFFC01208385E251
S113110090E0FC01108287E290E02FE0FC01208354
S113111088E290E020EFFC0120838AE290E02FEF48
S1131120FC0120838BE290E0FC0110828AE090E0D5
S1131130A0E0B0E08B839C83AD83BE8381E090E02C
S1131140A0E0B0E08F839887A987BA8782E390E014
S1131150A0E0B0E08B879C87AD87BE8782E390E0F8
S1131160A0E0B0E08F87988BA98BBA8B8CE390E0DA
S1131170A0E0B0E08B8B9C8BAD8BBE8B84EF91E0B9
S1131180A0E0B0E08F8B988FA98FBA8F8AE090E0AF
S1131190A0E0B0E08B8F9C8FAD8FBE8F81E090E09C
S11311A0A0E0B0E08F8F98A3A9A3BAA32F813885BC
S11311B049855A858B819C81AD81BE81BC01CD015D
S11311C06BD9DC01CB018F8F98A3A9A3BAA32F8D70
S11311D038A149A15AA18B859C85AD85BE85BC01EA
S11311E0CD015AD9DC01CB018F8F98A3A9A3BAA34F
S11311F02F8D38A149A15AA18F859889A989BA89C7
S1131200BC01CD0149D9DC01CB018F8F98A3A9A3DF
S1131210BAA32F8D38A149A15AA18B899C89AD8984
S1131220BE89BC01CD0138D9DC01CB018F8F98A3D5
S1131230A9A3BAA32F8D38A149A15AA18F89988D4A
S1131240A98DBA8DBC01CD0127D9DC01CB018F8FCB
S113125098A3A9A3BAA32F8D38A149A15AA18B8D14
S11312609C8DAD8DBE8DBC01CD0116D9DC01CB01A9
S11312708F8F98A3A9A3BAA38F8D98A1A9A1BAA16E
S11312808BA39CA3ADA3BEA38B819C81AD81BE81A6
S11312902BA13CA14DA15EA1BC01CD014DD2DA012F
S11312A0C9018FA398A7A9A7BAA78F819885A985F3
S11312B0BA852BA13CA14DA15EA1BC01CD013CD2BC
S11312C0DA01C9018BA79CA7ADA7BEA78B859C8516
S11312D0AD85BE852BA13CA14DA15EA1BC01CD0174
S11312E02BD2DA01C9018FA798ABA9ABBAAB8F8512
S11312F09889A989BA892BA13CA14DA15EA1BC0101
S1131300CD011AD2DA01C9018BAB9CABADABBEAB3C
S11313108B899C89AD89BE892BA13CA14DA15EA17D
S1131320BC01CD0109D2DA01C9018FAB98AFA9AFD5
S1131330BAAF8F89988DA98DBA8D2BA13CA14DA1EF
S11313405EA1BC01CD01F8D1DA01C9018BAF9CAF1C
S1131350ADAFBEAF8E01015C1F4F8B8D9C8DAD8DEB
S1131360BE8D2BA13CA14DA15EA1BC01CD01E4D158
S1131370DA01C901F80180839183A283B383CE018A
S11313808B5B9F4F2EE0E0E4F1E0DC0101900D92D5
S11313902A95E1F7CE018D5B9F4F27E030E0FC01F9
S11313A0318320838FEF9FEF9093740180937301B7
S11313B08FA198A5A9A5BAA58093750190937601EC
S11313C0A0937701B09378018FA198A5A9A5BAA598
S11313D08093790190937A01A0937B01B0937C016F
S11313E084E993E090937E0180937D018FEF9FEFDA
S11313F09093800180937F018BA59CA5ADA5BEA58C
S11314008093810190938201A0938301B09384011E
S11314108BA59CA5ADA5BEA580938501909386015F
S1131420A0938701B09388018FEF93E090938A0192
S1131430809389018FEF9FEF90938C0180938B01B0
S11314408FA598A9A9A9BAA980938D0190938E011B
S1131450A0938F01B09390018FA598A9A9A9BAA9C7
S11314608093910190939201A0939301B09394017E
S113147087E594E090939601809395018FEF9FEF19
S113148090939801809397018BA99CA9ADA9BEA9BB
S11314908093990190939A01A0939B01B0939C012E
S11314A08BA99CA9ADA9BEA980939D0190939E018F
S11314B0A0939F01B093A00186EF94E09093A201C2
S11314C08093A1018FEF9FEF9093A4018093A301D8
S11314D08FA998ADA9ADBAAD8093A5019093A6014B
S11314E0A093A701B093A8018FA998ADA9ADBAADF7
S11314F08093A9019093AA01A093AB01B093AC018E
S113150085E895E09093AE018093AD018FEF9FEF56
S11315109093B0018093AF018BAD9CADADADBEADEA
S11315208093B1019093B201A093B301B093B4013D
S11315308BAD9CADADADBEAD8093B5019093B601BE
S1131540A093B701B093B80180E796E09093BA01F5
S11315508093B9018FEF9FEF9093BC018093BB01FF
S1131560CE01CF96FC0180819181A281B3818093C9
S1131570BD019093BE01A093BF01B093C001CE0101
S1131580CF96FC0180819181A281B3818093C101B6
S11315909093C201A093C301B093C4018BEA97E076
S11315A09093C6018093C5018BA19CA1ADA1BEA15E
S11315B0BC01CD010E9411020E946F000E947501BE
S11315C01A82198292C09E012B5B3F4F89819A81B6
S11315D0880F991F820F931FFC0180819181FC0168
S11315E02681378140855185BE016B5B7F4F8981A0
S11315F09A81880F991F860F971FFC018081918122
S1131600FC0182819381A481B581281739074A0797
S11316105B0709F040C09E012B5B3F4F89819A8193
S1131620880F991F820F931FFC01008111819E0175
S11316302B5B3F4F89819A81880F991F820F931FDB
S1131640FC0180819181FC0122853385AE014B5BD5
S11316505F4F89819A81880F991F840F951FFC0120
S113166080819181FC0180819181F9010995F801C2
S1131670918380839E012B5B3F4F89819A81880FE0
S1131680991F820F931FFC0180819181FC011682B6
S11316901782108611869E012B5B3F4F89819A81A8
S11316A0880F991F820F931FFC0120813181AE01A5
S11316B04B5B5F4F89819A81880F991F840F951F17
S11316C0FC0180819181FC0186819781A085B1858F
S11316D00196A11DB11DF90186839783A087B18767
S11316E089819A8101969A838983CE018D5B9F4F6C
S11316F029813A81FC01808191812817390708F4F6
S113170062CF000080914E018823E1F310924E01D4
S113171057CF97FB072E16F4009406D077FD08D018
S11317202DD007FC05D03EF4909581959F4F0895E8
S1131730709561957F4F0895A1E21A2EAA1BBB1BD9
S1131740FD010DC0AA1FBB1FEE1FFF1FA217B30789
S1131750E407F50720F0A21BB30BE40BF50B661F9F
S1131760771F881F991F1A9469F760957095809563
S113177090959B01AC01BD01CF010895AA1BBB1B31
S113178051E107C0AA1FBB1FA617B70710F0A61B7D
S1131790B70B881F991F5A95A9F780959095BC019E
S11317A0CD010895F999FECF92BD81BDF89A99278C
S11317B080B50895262FF999FECF92BD81BDF89A80
S11317C0019700B4021639F01FBA20BD0FB6F89481
S10F17D0FA9AF99A0FBE0895F894FFCF1E
S11317DC0100000001010853636F72653A20004751
S11317EC414D45204F564552004E65772048692D92
S11317FC53636F726521004375722048692D5363DE
S113180C6F72653A0030313233343536373839003B
S111181C73017F018B019701A301AF01BB0192
S9030000FC
